:020000040000FA
:060000000212480207D1C4
:03002B000211F7C8
:03003300020E2793
:0300430002107830
:03004B00020F4D54
:030053000207237E
:03005B00020F5C35
:03006300020F6821
:03006B00020E0D75
:03007B00020E6F03
:1000830002076D01010503010300030003000300E0
:100093000300030003000300030005000A0014002B
:1000A30028004F009E0000002F172F172F172F1720
:1000B300F115EB152F178E2400000000F02400002B
:1000C30000000C0000000C00010000851800000077
:1000D3000000001519000000000000000032009429
:1000E30005FF010101001B0E0000006B0EE8036415
:1000F300006400B8010202000001000501071E02AE
:10010300051E03B80B0122220202020605F3043581
:100113003F000080BF1872313F2292D43EDD9B2AFC
:100123003F04000040D85BDE3E3031323334353695
:1001330037383941424344454600286E756C6C207C
:10014300706F696E7465722900303132333435361D
:10015300373839616263646566003F3F3F00F902E7
:100163001550B743BA510000204100E7DB2E0000D1
:10017300A04010000000080000000A000000121256
:10018300676046121294603DE9687008F618F61825
:10019300F618F622748067F71201B509090974800D
:1001A30067F722121294601D12126770051919194C
:1001B300801A1210FA701F12110FC37003E667330F
:1001C30019191940071818182208080874FFF61897
:1001D300F618F618F62212110F60171212BB7021CF
:1001E30092F01212C57019501720F014080808096C
:1001F3000909E7F61819E7F61819E7F61819E7F6E3
:10020300221212C560E6E869701F0808E62480F62A
:1002130008E436F618547FB47F0CE654806007F682
:10022300E418F618F622181822E9C6CC08C6CD0839
:10023300C6CE08C6CFC0E0E8C0E0EAC0E0EBC0E04D
:1002430009E9F809E7FA09E7FBE6F918E6F8C3EC68
:1002530098ED99EE9AEBC2E7F5F0EFC2E795F0500F
:100263000E600CEBCFFBEACEFAE9CDF9E8CCF8EA65
:10027300A2E7D2E7FAEB33FB13F5F0EEA2E7D2E7FE
:10028300FEEF33FFC5F013A2E730E601B313C5F069
:10029300C3C0E0C0F07F00C39BFB605B9418600C9D
:1002A300401AD0E023F9D0E0F80203848AF0E94849
:1002B3006003D2F0E4AFF0FAF9F8803BEB30E40DE1
:1002C30089F0EA6003D2F0E4AFF0F9CAF8EB30E367
:1002D3000D88F0EF6002D2F0AFF0E4CAC9F8EB5436
:1002E300076014FBC3EA13FAE913F9E813F8EF13F1
:1002F3005002D2E0FFDBEDD0E0C0E030E739C3E4E9
:100303009FFFF5F0EC98FC42F0ED99FD42F0EE9A78
:10031300FE42F0D0E0F9D0E0F8E5F0607AE923F9A5
:10032300EE20E742D8028067C3EF33FFEC33FCEDE6
:1003330033FDEE33FE80EAEC28FCED39FDEE3AFEA8
:10034300D0E023F9D0E0F84002801BC3EE13FEEDAA
:1003530013FDEC13FCEF135002D2E0FF08B80006C4
:100363007F7F74FF802EEF3350178CF020F00260F4
:10037300100CBC000C0DBD00080EBE000408E860A4
:10038300DFE933E813FFEE2313FE4F4D4C8008E9FA
:100393005480FFE4FEFDFCEE33EF33F47004FCFD08
:1003A3007E80D0E0FBD0E0FAD0E0F8D0E0CFC618F2
:1003B300CEC618CDC618CCC6F922121294700418F2
:1003C300181822121267700D74FFF61819F618190F
:1003D300F61819F622E7548066F61212C5700F124A
:1003E30012BB70F014F608F608F608F680D1121264
:1003F300BB700CF608F608768008E6447F80EC12A2
:100403001112700C1210FD60BFE65480F6E480BB3D
:100413001210FD700519191980A5E869700C763F53
:1004230018768018F618F6E8F922E6CDC0E018EC45
:10043300C0E0E633CD33CDD313F6E719FCE7191942
:1004430033CC33C3947F400ECD9D502408E65480B3
:10045300F6E418F6800FF4043D14501408E6447FC4
:10046300F6187680E418F618F6D0E0FCD0E0FD220A
:10047300CCD313CCFD18E4C6CBC0E018E4C6CAC085
:10048300E00808ED08C633E613F618E433C675F042
:1004930003C3CA97CA09CB97CB199C40047D088034
:1004A3002EBD000302056616B6FF050606081618DC
:1004B300C3CA33CACB33CB33CA27CA09CB37CB1909
:1004C3003CC37D08803E187D0820E75CC633C6CA5E
:1004D30033CACB33CB33DDF1D5F0EB30E77BCA97AF
:1004E300CA09CB974ACB199C406F4B7025E620E095
:1004F300218066187D08C3CA97CA09CB97CB199C7C
:10050300D3C633C6CA33CACB33CB3350C9DDE7D5E1
:10051300F0E1D3E4C636C608C636C608C636C608F2
:10052300C636C61818188031C3CA97CA09CB97CBE9
:10053300199CB34097C633C6CA33CACB33CB33DD1A
:1005430034D5F02EC6A2E0C640C8CA27CA09CB37A5
:10055300194A70BECB3CB480B90808E63308E633C9
:10056300601F181818D0E0FAD0E0FBD0E0FCD0E010
:10057300FD22187D08CA27CA09CB37CB193CD38083
:100583008013F618E4B67F11F618B6FF0EF618C6F8
:100593000470D20808768080CAF618F618F680C56B
:1005A30000121294604F1212676012E7548066F6CD
:1005B3001210FA70111212BB703B090909F4F618F4
:1005C300F618F618F62212110F70151212C5080844
:1005D3000860EAE6447FF618768018E4F618F622F7
:1005E3001212C560161212BB7012E4F608F608F672
:1005F30008E65480F609090918181822EAC0E0EB46
:10060300C0E0ECC0E0EDC0E0E687F0A4FBACF0088E
:10061300E687F0A42CFCE435F0FA1809E687F0A489
:100623002C4B60027401CA35F0FCE433FB09E68706
:10063300F0D2F7A42CCB35F0FC1908E687F0A42BF5
:10064300CC35F0FBE433FD0819E687F0D2E7A42CA0
:100653004ACB35F0CD3400FC09E687F0D2E7A42D70
:10066300CC35F0FDE433FA0918E687F0D2F7A42C71
:10067300CD35F0CA3400FC08E687F0D2E7D2F7A400
:100683002ACC35F07A7E20E70B0ACB33CBCD33CDA2
:10069300CC33CC33CB3350147004ED30E00ED2F1B5
:1006A300E4CD3DCDCC3CCC3B5005DA05C2F1EB5457
:1006B3007FC63308E63392F0FBE73309E733C39A87
:1006C300502D2B70190C0D4C4D70151806E608C3F0
:1006D30033700D20F10AA2F013F6E418800B4024C6
:1006E300E4F630F002768018F618F618F68024D374
:1006F3003B14501074FFA2F013F6187680E418F63A
:1007030018F6800FA2F013F618E63303F618ECF68A
:1007130018EDF6D0E0FDD0E0FCD0E0FBD0E0FA220B
:10072300C0E074F2120AE4E5A7FAE5A1FBEA5B5420
:10073300106008121E9D53A1EF802AEAA2E0C0D0E8
:10074300EBA2E092F0121198158182F0501790619C
:1007530098E0FA901180E0C39AA2D265D033500298
:10076300EAF053A1FE7F01020B9BC0E074F2120A70
:10077300E49061A4E0FA759B00E5915A540860087F
:100783007591F7121EDF802AE5915A54106008759F
:1007930091EF121EE5801BEAA2E0C0D0E591A2E032
:1007A30092F0121198158182F05007E0C2E0F01226
:1007B30020059061A3E0FAE5E95A5404600E121F84
:1007C300DB75E9FB906193E0A2E640F28097C0E01D
:1007D30074F2120AE49061A5E0FAE5BF5A5404608A
:1007E3000653BFFB12201D020768C3E498F8E4997F
:1007F300F912082E8026C3E49AFAE49BFBE920E76A
:10080300E912082EE498F8E499F922C3E498F8E48D
:1008130099F912082EE498F8E499F9C3E49AFAE4F2
:100823009BFB22EB20E7CFE920E7E0B90010BB00F8
:1008330008E88AF084F8AAF022E4FBC8FA22EB70F5
:10084300227B10C833C8C933C9335007C39AC3DBEB
:10085300F280069A50012ADBEAC833F4C8C933F49C
:10086300C9FA2275F008E4C833C8C933C933C99A31
:10087300C99B5004C92AC93BD5F0ECFBC833F4C863
:10088300E4C9FA221208C720F01430E72B74FFFCE6
:10089300FBFA747F8022E4FCFBFA7480801AB48034
:1008A30008BC00F2BB00EF800F50EBF9E4C39AFAE7
:1008B300E49BFBE49CFCE499C6CC18C6CB18C6CADF
:1008C30018C6F922E4C9C608CAC608CBC6D333037F
:1008D30008CCC63392F0C3947F402E94184019C9B4
:1008E300B90704CACBCC225025C309CA33CACB33B8
:1008F300CBCC33CC33D9F422F4600DC9CCC313CBA6
:1009030013CBCA13CAD9F6CC22E4FCFBFA2214FC9B
:10091300FBFA22080808EAC0E0EBC0E086F0E7A48F
:10092300FA180986F0E7A42AFA180986F0E7A42A38
:10093300FA180986F0E7A42AFA1986F0E7A4FBE57A
:10094300F02AFA190886F0E7A42BFBE5F03AFA1926
:100953000886F0E7A42BFBE5F03AFA18180986F0AD
:10096300E7A4C5F02BFBE43AFA1908E7C5F0C6A4DF
:1009730026F6E5F03BFBE43AFA1886F0E7A4F6E541
:10098300F00826F6E43B08F6E43A08F6D0E0FBD09C
:10099300E0FA22080808E630E7111211241209AE22
:1009A300080808C64480C618181822181818E979C8
:1009B3009EC608CAC608CBC608CCC6C370207996A3
:1009C300CACBCC7019798ECBCC70137986CC700ED0
:1009D300F9802ACA33CACB33CBCC33CC331930E7B3
:1009E300F2CCCBCA3350147004EA30E00DE4CA3AB7
:1009F300CACB3BCBCC3CCC500209C3E913C6CC18C1
:100A03002313C6CB18C6CA18C6F922E4CFC0E0E444
:100A1300CEC0E0E4CDC0E0E4CCC0E075F020C3E696
:100A230033F608E633F608E633F608E633F6181825
:100A330018EC33FCED33FDEE33FEEF33FFC3EC97DD
:100A430009ED9709EE9709EF97191919400FFFEC74
:100A530097FC09ED97FD09EE97FE191906D5F0BE2F
:100A6300ECF709EDF709EEF709EFF7191919D0E0DB
:100A7300FCD0E0FDD0E0FED0E0FF222510C582C00F
:100A8300E0E51134FFC583C0E0E510C3958224F887
:100A9300F8E4C5A8858311858210C5A8E8CEF0A324
:100AA300E520F0A37808E608F0A3DEFAEFF0A3E56B
:100AB3008124FAF8E608F0A3E608F0A3E608F0A319
:100AC3000808E608F0A3E608F0A315811581D0E035
:100AD300FED0E0F8158115811581E8C0E0EEC0E095
:100AE30022C0D02510C582C0E0E51134FFC583C004
:100AF300E0E510C3958224F310AF08858311858246
:100B0300108008858311858210D2AFC8F0A3E9F065
:100B1300A3EAF0A3EBF0A37908E709F0A3D8FAEC72
:100B2300F0A3EDF0A3EEF0A3EFF0A3D0E0F0A3D099
:100B3300E0F0A3D0E0F0A3E520F0A3E5F0F0A322DA
:100B43001212B0B90003020B85E4900400785E79B9
:100B53000F8002F0A3D8FCD9FA90125DAA82AB836E
:100B630090008678FC79018015E493A3AC82AD8371
:100B73008A828B83F0A3AA82AB838C828D83D8E98C
:100B8300D9E77582297583E27402120D1875823BC9
:100B93007583237400120D18851183851082E0C0BC
:100BA300E0A3E0F9A3E0FAA3E0FBA37808E0F608EA
:100BB300A3DFFAE0FCA3E0FDA3E0FEA3E0FFA3E0D4
:100BC300C0E0A3E0C0E0A3E0F5D0A3E0F520A3E0FC
:100BD300A3F5F0E4C5A8858311858210C5A8D0824A
:100BE300D083D0E0F8D0E032121294601C12126766
:100BF30060171212C570071212BB7001D322C0D046
:100C03001212BB7006D0D0B322C32233D0D05014FB
:100C130030E0F6C3E7960809E7960809E79608095E
:100C2300E796B32220E0D5E6970809E6970809E698
:100C3300970809E697B322121294601B1212676099
:100C4300161212C570071212BB600CB322C0D01269
:100C530012BB7005D0D022C32233D0D0501330E062
:100C6300EBC3E7960809E7960809E7960809E796AC
:100C73002220E0E4E6970809E6970809E6970809C1
:100C8300E69722D083D082ECC0E0EDC0E0E493A3EA
:100C9300FCE493A3FDED4C600D120D5AEC24FFFC14
:100CA300ED34FFFD80EFE493A3FCE493A3FDED4C4F
:100CB300600D120EF8EC24FFFCED34FFFD80EFD045
:100CC300E0FDD0E0FCE493A3C0E0E493C0E022D0D5
:100CD30083D082E9C0E0E493A3C386F0C5F095F026
:100CE300F908E493A386F0C5F095F0700BE493A3A1
:100CF300C3994005E9048002A3E475F002A42582A8
:100D0300F582E5F03583F583D0E0F9E493A3C0E001
:100D1300E493C0E022F5F0E59F5407C0E0E59F545B
:100D2300F845F0F59FE473859FF053F0F8D0E04564
:100D3300F0F59F22D083D082E59F5407C0E0E4936F
:100D4300C0E0740193C0E07402935407F5F0E59F8B
:100D530054F845F0F59F22C0E0C3E493960874016C
:100D6300939618400FE4936670080874019366180D
:100D730070007019A3A3C3E49396087401939618A3
:100D8300A3A3400DD0E0D0E0D0E0020CC2A3A3A304
:100D9300A3A3A3D0E022851183851082E0A3FEE004
:100DA300A3F5207808E0A3F608DFFAE0A3FFE0A3A9
:100DB300C0E0E0A3C0E0E0A3C0E0E0A3C0E0E0A3A4
:100DC300C0E0E4C5A8858210858311C5A8D083D06F
:100DD30082020D2AD083D082C5F0E493A3C5F0C369
:100DE30095F0F5F0E493A3C395F04005E5F0048096
:100DF30001E475F002A42582F582E5F03583F583DD
:100E0300E493A3C0E0E493C0E022C0E074F2120ACA
:100E1300E4E589A2E15003121D7D758900C2C57FF7
:100E230001020B9BC0E074F2120AE4E58BA2E050CE
:100E330003121D7D758B00C2E880E4740480047482
:100E4300028000CCC0E0EDC0E0E510C39CCCAD1146
:100E530050011D10AF068C108D1180068C108D1162
:100E6300D2AF120F96D0E0FDD0E0FC22C0E074F2C6
:100E7300120AE4E58AA2E2501C7401900DFCF07A98
:100E8300027B00900DCDE0F91219C97A647B001240
:100E93001B13538AFBC2EB7F01020B9B740280007E
:100EA300CCC0E0EDC0E0E510C39CCCAD1150011DFA
:100EB30010AF068C108D1180068C108D11D2AF12DD
:100EC3000F74D0E0FDD0E0FC2212129460251212C0
:100ED3006760201212C570030212BB080808E76698
:100EE30070101819E766700A1819E7667004181964
:100EF300E76622F422C0E0C0F088F0E4936670084D
:100F03000874019366187000A8F0A3A3700BD0F0C7
:100F1300D0E0D0E0D0E0020CC2A3A3D0F0D0E02216
:100F2300D083D082CCC0E0E493A36006120FD61422
:100F330070FAE493A3600612108F1470FAD0E0FCE9
:100F4300E493A3C0E0E493C0E022C0E074F2120A89
:100F5300E4121DDD7F01020B9BC0E074F2120AE470
:100F6300121DE380EFC0E074F2120AE4121DE9805F
:100F7300E3CAC0E0E493A3C582CCC582C583CDC5D3
:100F830083F0A3C582CCC582C583CDC583DAE5D002
:100F9300E0CA22CAC0E0E0A3C582CCC582C583CD26
:100FA300C583F0A3C582CCC582C583CDC583DAE6EC
:100FB300D0E0CA227009080808226016181818C65B
:100FC300C333C608C633C608C633C608C633C6D538
:100FD300E0EA22C0E0E493A3D39C5010E493A3C3BC
:100FE3009C400AD0E0D0E0D0E0020F40A3A3A3D0FE
:100FF300E0227404800A7403800674028002740180
:10100300C0E0F404121010D0E01212A3222510F550
:101013008210AF08F510400215118008F510400248
:101023001511D2AF85118322C0D0251010AF08F55A
:1010330010500205118008F51050020511D2AFD0EF
:10104300D022BB0102E722C082C08389828A83BB8C
:101053000003E08002E493D083D082226016080864
:1010630008C6C313C618C613C618C613C618C613B4
:10107300C6D5E0EA22C0E074F2120AE4C2C0E5D1A8
:10108300A2E45003121E137F01020B9BC0E0E49302
:10109300A36C7009D0E0D0E0D0E0020F40A3A3D04E
:1010A300E022251010AF08F510400215118008F555
:1010B3001040021511D2AF22C3E09608A3E09608B0
:1010C300A3E09608A3E096A2D265D03322C3E796A5
:1010D3000809E7960809E7960809E796A2D265D0BA
:1010E3003322E066701008A3E066700A08A3E06686
:1010F300700408A3E06622181818E6084608700A68
:10110300E608C3337005E633F4220822191919E7F8
:10111300094709700AE709C3337005E733F4220965
:1011230022181818E4C396F608E496F608E496F62F
:1011330008E496F622C3E096F008A3E096F008A32D
:10114300E096F008A3E096F022E647F60809E647A2
:10115300F60809E647F60809E647F622E627F60801
:1011630009E637F60809E637F60809E637F622E016
:1011730026F608A3E036F608A3E036F608A3E03621
:10118300F622E026F008A3E036F008A3E036F008E4
:10119300A3E036F022C0E0E8C0E0E58124FCF8E6F5
:1011A300A2E7D0E0F8D0E022700422600D18C6C395
:1011B30033C608C633C6D5E0F41822E657F6080945
:1011C300E657F60809E657F60809E657F622E05609
:1011D300F008A3E056F008A3E056F008A3E056F0A9
:1011E30022E056F608A3E056F608A3E056F608A355
:1011F300E056F622C0E074F2120AE4C2C7121F21BD
:101203007F01020B9BC3E7960809E7960809E79657
:101213000809E79622C6F4C608C6F4C608C6F4C68B
:1012230008C6F4C622600D08C6A2E713C618C61383
:10123300C6D5E0F322C3E09608A3E09608A3E096A0
:1012430008A3E0962275D0007581407510007511D2
:101253000400020B43600C08C6C313C618C613C6AA
:10126300D5E0F422E7094709C3134709336002E7CE
:1012730033F422E6F008A3E6F008A3E6F008A3E6B9
:10128300F022E0F608A3E0F608A3E0F608A3E0F6F0
:1012930022E6084608C3134608336002E633F42205
:1012A300CAC0E0E6F0A308DAFAD0E0FA2274F855EF
:1012B300C74401F5C7790122E7C333194719471911
:1012C3004722E6C333184618461846222510F582EE
:1012D300E43511F58322120D375AAD01120D37C9CA
:1012E300AD01120D373DAF01120D3759AF01120D8C
:1012F30037BBAF01120D375BB001120D379DB00143
:10130300120D373AB101120D37F6B101120D3758EC
:10131300B201120D37C7B201120D371AB301120D04
:101323003753B301120D3727B401120D3747B501F7
:10133300120D379EB501120D37E7B501120D370FA8
:10134300B601120D3790B601120D370EB701120D0B
:101353003777B701120D3788B701120D370DB80172
:10136300120D37B2B801120D37F4B801120D377AE6
:10137300B901120D37ADB901120D37EEB901120DD6
:10138300376ABB01120D3720BD01120D3708BE01AC
:10139300120D37EABF01120D37F4BF01120D37FEEC
:1013A300BF01120D3708C001120D3712C001120D13
:1013B300371CC001120D3726C001120D374AC00178
:1013C300120D376EC001120D37C7C001120D371E43
:1013D300C101120D373CC101120D37C1C101120DFC
:1013E30037FDC101120D373DC201120D37ED260045
:1013F300120D37392700120D37E92800120D372750
:101403002900120D37C02900120D37F42900120DDF
:1014130037382A00120D37502B00120D37C52B0019
:10142300120D377F2E00120D376D2F00120D37125C
:101433003000120D37273100120D37513400120DD1
:1014430037DE3400120D371B3500120D37E135003E
:10145300120D377E3600120D37C83600120D37F5E0
:101463003600120D37173700120D372D3900120DC4
:1014730037EE3900120D374E3A00120D37B13A00EC
:10148300120D377A3B00120D37AF3B00120D3703B5
:101493003C00120D37383C00120D37883C00120D0A
:1014A30037E33C00120D37673D00120D37953E00C0
:1014B300120D37503F00120D37744000120D3700E4
:1014C3004200120D37904200120D37594300120D9E
:1014D30037E24300120D37294400120D379F4500B0
:1014E300120D37B34500120D37D04500120D37FAF0
:1014F3004500120D37064600120D37244600120D23
:1015030037EB4600120D37154700120D37224700FF
:10151300120D37B24700120D37964800120D37925D
:101523004900120D37254A00120D37B54A00120D36
:1015330037CC4A00120D37F04A00120D370E4B001C
:10154300120D37524B00120D37AC4B00120D37D42E
:101553004C00120D37F24D00120D37514E00120D93
:1015630037094F00120D372F4F00120D372250004D
:10157300120D37415000120D37BD5000120D3725A3
:101583005100120D37515100120D379C5100120DAD
:1015930037D05100120D37415200120D379C5200C3
:1015A300120D37E88503120D37338603120D37FC0E
:1015B3005300120D37475400120D37A25400120D79
:1015C30037F35400120D370E5500120D37445500F2
:1015D300120D37655500120D376F5500120D378404
:1015E3005600120D37A25600120D37125700120D76
:1015F30037255700120D37335700120D37D45700D4
:10160300120D37A85800120D37C35900120D373F7A
:101613005A00120D37495A00120D37BC5A00120DE9
:1016230037D35A00120D37155B00120D37535B0089
:10163300120D37825B00120D37B95B00120D37D7DD
:101643005B00120D37FB5B00120D373C5C00120D83
:1016530037275D00120D376D5D00120D37985D0061
:10166300120D37055E00120D372C5E00120D377117
:101673005E00120D377F5E00120D37D85E00120D2B
:1016830037155F00120D375C5F00120D378D5F0059
:10169300120D37B05F00120D37BB5F00120D37D943
:1016A3005F00120D37956000120D379F6000120D19
:1016B30037DE6000120D37F46000120D37FD600055
:1016C300120D37416100120D37556100120D37407D
:1016D3006200120D37536200120D37686200120D5B
:1016E30037106300120D375C6300120D371264006C
:1016F300120D371D6400120D376B6500120D3797FD
:101703006500120D37D86500120D37F26500120D12
:1017130037296600120D378C6800120D37146900E3
:10172300120D37946900120D37D76B00120D37E78E
:101733006B00120D37EA6B00120D37F66B00120DBA
:10174300370A6C00120D37296C00120D375C6C00E0
:10175300120D37216D00120D37886D00120D37EC15
:101763006D00120D37766E00120D37276F00120DC4
:10177300374E6F00120D37DE6F00120D37EA6F0020
:10178300120D37197000120D373B7000120D3762BE
:101793007000120D37C77000120D377A7200120DE8
:1017A300377D7200120D37E77200120D37DA7300BE
:1017B300120D37BF7400120D374A7500120D378DA5
:1017C3007600120D37507700120D37897700120D0E
:1017D30037BA7700120D37C37700120D37A7780099
:1017E300120D37377900120D37D57900120D379561
:1017F3007A00120D370E7B00120D373D7B00120D60
:10180300377A7B00120D37A7F501120D37B5F501B5
:10181300120D3731F601120D3767F601120D37B28B
:10182300F601120D37DCF801120D37D6FA01120D4D
:1018330037C3FD01120D37F1FD01120D3713FE0100
:10184300120D3780FE01120D37BCFE01120D37EA6F
:10185300FE01120D3727FF01120D3739F602120D63
:101863003752F602120D379DF602120D37E8F602D3
:10187300120D378BF702120D3715F302120D375B7A
:10188300F402120D37C4CE02120D3743CF02120DEC
:10189300374ECF02120D3775CF02120D3789CF02A3
:1018A300120D37FECF02120D372ED002120D371D47
:1018B300D102120D37CAD102120D3728D202120DEE
:1018C3003778D202120D37ADD202120D3705D3028B
:1018D300120D3740D302120D37ADED02120D37C48E
:1018E300ED02120D375FEE02120D370EEF02120DED
:1018F300373BEF02120D37B3F402120D373FF502F7
:10190300120D3749F502120D376EF502120D371D10
:10191300F602120D379BAB02120D3737AC02120DD4
:101923003768AC02120D37AAAC02120D37D4AC02E1
:10193300120D37F4AC02120D3740AD02120D378F82
:10194300AD02120D37E1AE02120D3702AF02120DD6
:101953003723AF02120D377BAF02120D372DB002C2
:10196300120D3780B002120D37EAB102120D37861D
:10197300B202120D37AFB302120D37CBB302120D01
:101983003711B402120D37BAB402120D37E0B402A4
:10199300120D37A9B502120D37B2B502120D370871
:1019A300B602120D3733B602120D3798B602120D76
:1019B3003709B702120D3749B702120D37AEB70216
:1019C300120D373CB802120D379CB802120D37CEF8
:1019D300B802120D37DEB802120D37EEB802120D3F
:1019E300370DB902120D37C7B902120D370D810336
:1019F300120D3790EF02120D37EFEF02120D371B66
:101A0300F002120D371EF102120D3759C401120DE7
:101A1300373DC501120D3778C501120D3730C701A7
:101A2300120D3774C701120D370FC901120D375646
:101A3300C901120D3781A801120D37BCCA01120D5D
:101A43003759CB01120D37B1CB01120D37F4CB014E
:101A5300120D37A4CD01120D375BCF01120D379153
:101A6300D101120D379BD101120D37F8D101120D9F
:101A7300374DD201120D378BD501120D373A87033B
:101A8300120D37858603120D37D7D902120D37EFA2
:101A9300D902120D378BDA02120D37CCDA02120D8E
:101AA30037E9DA02120D370FDB02120D3715AD01DC
:101AB300120D377CDB02120D37A6DC02120D37CD77
:101AC300FD02120D373AFE02120D3755FE02120DBA
:101AD300379AFE02120D37C0FE02120D37DAFE02EC
:101AE300120D372A9B02120D37CB9B02120D37C101
:101AF3009C02120D37FE9C02120D37B89D02120D87
:101B030037479E02120D37BF9F02120D3738A002CE
:101B1300120D37AFA002120D37CDA002120D37E719
:101B2300A002120D3757A102120D37B78F02120D03
:101B330037059002120D37A39002120D372C910234
:101B4300120D377B9102120D37D89102120D37EC2B
:101B53009102120D37B89302120D37379402120D0A
:101B630037619402120D37049602120D371B960249
:101B7300120D375C9602120D37969602120D37EF4F
:101B83009602120D37059702120D37889702120D30
:101B930037199902120D37499902120D37729902BA
:101BA300120D37D29902120D37EC9902120D37EF4D
:101BB3009902120D37F29902120D37649A02120D2F
:101BC300378D9A02120D37F49A02120D37279B02B2
:101BD300120D37A58303120D37B18303120D37F9A5
:101BE3008303120D37008002120D372B8002120D72
:101BF30037D68002120D373D8102120D37A08102C4
:101C0300120D37EC8102120D375A8202120D37ED95
:101C13008202120D37638302120D37A38302120D62
:101C230037BE8702120D374E8902120D37778902AC
:101C3300120D375B8A02120D373F8B02120D3703E9
:101C43008D02120D376E8D02120D37E1E501120D73
:101C5300379BE601120D370BE701120D3723E7011E
:101C6300120D37B4E701120D37EFE701120D37C438
:101C7300E801120D37F0E801120D3768E901120D82
:101C830037B4E901120D3715EA01120D372CEB01B8
:101C9300120D37AEEB01120D3717EC01120D37BBE6
:101CA300ED01120D375CEE01120D37F1EE01120D4D
:101CB3003750EF01120D37B9EF01120D3713F10150
:101CC300120D37E6F201120D3787F301120D375269
:101CD300F401120D37578703120D37608703120D76
:101CE30037BFE402120D3727E502120D37D4E502A0
:101CF300120D373AE602120D37ABE602120D37DF4B
:101D0300E202120D3738E302120D3742FA02120DC6
:101D13003787FA02120D373BFB02120D3758F102D7
:101D2300120D3766F102120D37ED7F00120D374D9C
:101D33007F00120D375D7F00120D377B7F00120D80
:101D430037E37F00120D3775FB02120D379CFB0240
:101D5300120D3725FC02120D378CFC02120D37DDF4
:101D63009D03120D37F4FE02120D3712FF02120DFE
:101D73003775FF02120D3780FF02120D37C5FF02C0
:101D8300120D37A5FC02120D37B6FC02120D371ADD
:101D9300FD02120D3734FD02120D3746FD02120DFE
:101DA300375BFD02120D3787FD02120D3796FD02D8
:101DB300120D3727CA02120D3735CA02120D37B377
:101DC300CA02120D37D9CB02120D375FCE02120DA4
:101DD30037A4F702120D37DCF702120D3700F802B1
:101DE300120D375EF802120D37C0F802120D37EAF2
:101DF300C402120D3769C502120D371CC602120D3B
:101E0300378DC602120D379FC702120D371BC90249
:101E1300120D377BC902120D37C9C902120D37D211
:101E2300C902120D37E8C902120D37FAC902120DA1
:101E3300370CCA02120D3715CA02120D3771BF02D1
:101E4300120D37C4BF02120D3744C202120D377C84
:101E5300C202120D37A1C202120D37BAC202120D0D
:101E630037D3C202120D370EC402120D37ABC402B0
:101E7300120D37A3EB02120D37E6EB02120D37F703
:101E8300EB02120D3725EC02120D3755EC02120D41
:101E93003790EC02120D3700ED02120D3733ED02CD
:101EA300120D377DDF02120D37A8DF02120D37EF57
:101EB300DF02120D3701E002120D371DE002120D91
:101EC3003785E002120D378EE002120D37EFE00284
:101ED300120D3713E102120D37DDE102120D37EA5D
:101EE300E102120D37FBE102120D371B8503120DC0
:101EF30037688503120D3760D302120D3759D402A8
:101F0300120D376ED402120D3781D402120D379B96
:101F1300D402120D37BAD402120D3739D502120D7D
:101F230037F9D502120D376BD602120D37C8D60218
:101F3300120D37D8D602120D3765FF01120D378AFD
:101F4300FF01120D37B3FF01120D37DBFF01120D35
:101F53003737E702120D3750E702120D375CE702FD
:101F6300120D3770E702120D3794E702120D37A0F6
:101F7300E702120D37AFE702120D37C2E702120D67
:101F830037F7E702120D3731E802120D3766E80220
:101F9300120D37B5E802120D3701E902120D371998
:101FA300E902120D3723E902120D3734E902120D4B
:101FB3003778E902120D373D8603120D3763A3020A
:101FC300120D378FA302120D37ABA302120D37BECA
:101FD300A302120D37D4A302120D373FA402120D30
:101FE3003779A402120D37E8A702120D3705A902AB
:101FF300120D3736A902120D3796A902120D377941
:10200300AA02120D37A1AA02120D37B6AA02120DA7
:1020130037C6AA02120D3707AB02120D375CAB02AB
:10202300120D3772AB02120D37FFF802120D371A79
:10203300F902120D3744F902120D3761F902120D3C
:102043003789F902120D37ABF902120D37C4F902C1
:10205300120D37F3F902120D370EFA02120D37CBB8
:102063008603120D37BB7B00120D37C27B00120DA6
:1020730037CF7C00120D37017D00120D37277D000D
:10208300120D375A7D00120D376C7D00120D37A7E4
:102093007D00120D37177E00120D37547E00120D8E
:1020A30037A17E00120D37CF7E00120D37EF7E0071
:1020B300120D37008003120D37128003120D370AF9
:1020C3008103120D370E8203120D37648203120D42
:1020D30037A28203120D37E38203120D37F8B902D8
:1020E300120D37FBB902120D3731BA02120D3777D1
:1020F300BA02120D37A4BA02120D37C7BA02120D73
:1021030037A0BB02120D37BEBB02120D373EBD0214
:10211300120D375DBE02120D37BEDC02120D37E31E
:10212300DC02120D372CDD02120D374EDD02120DCB
:102133003776DD02120D379CDD02120D3789DE0280
:10214300120D3793DE02120D37A0DE02120D375443
:10215300DF02120D375EDF02120D3768DF02120D48
:1021630037E7D602120D37D2D902120D378785030E
:10217300120D377EE902120D37A58403120D370BBA
:102183008703120D37058303120D372F8303120DB7
:10219300372F8403120D37CDD501120D379ADA018B
:1021A300120D371FA801120D3759A701120D37B0B1
:1021B300A601120D373AA601120D3707A601120D1B
:1021C30037F5A501120D37CDA501120D37AFA501C6
:1021D300120D379CAC01120D3770AB01120D37E5B0
:1021E300A401120D3746A401120D37DAAA01120D0C
:1021F300373FAA01120D37F7A201120D378CA00148
:10220300120D37989F01120D37709F01120D37077A
:102213009F01120D37AA9E01120D37579E01120D11
:1022230037A99D01120D37999A01120D37659A014D
:10223300120D373C9A01120D37189A01120D3762AD
:102243009901120D370B9901120D377B9701120D6E
:1022530037789701120D37389601120D371896010A
:10226300120D376E9501120D37E69301120D379E4D
:10227300A901120D3741A901120D3701A901120D50
:1022830037AD9301120D377E9301120D377B930106
:10229300120D376B9301120D37C6A801120D375D6E
:1022A3009301120D374E9301120D372D9201120D2A
:1022B30037B19101120D3745DB02120D379CA8018E
:1022C300120D377E9101120D37269101120D37F948
:1022D3009001120D37138E01120D37398D01120D36
:1022E30037CF8C01120D378F8C01120D37838C0180
:1022F300120D37F08B01120D37478B01120D37F496
:102303008801120D37D88501120D37A28501120DF0
:10231300373A8401120D37ED8301120D372E8301F5
:10232300120D37268201120D37878201120D376095
:102333008201120D3732CA0100000080FBE47300F2
:10234300013636010100010201000103010001040D
:1023530001060605020000070100340801000F0909
:102363000401010D0100FF0E08000017020000190F
:102373000100FF1A0100011B0100051C0100081DDB
:102383000200001F010001200100012102000023BF
:1023930001000F2402000026010001270103082881
:1023A3000200FF2A0100072B0102402C0100002D2F
:1023B3000100012E0100012F0100FF30010B1C3130
:1023C3000800003A01000801017101010101011136
:1023D3000101013101010101018001100161013B92
:1023E30000140063017301720162014301000113D0
:1023F3000106013D01350004011201000100010045
:1024030001000104010401330133013C01440132A1
:102413000136000001000165010001350081010062
:102423000105018201830100010302710230016091
:102433000211027002010202020202800210026112
:10244300023A004100630273027202620243020015
:10245300021302380000020002040212020002000A
:10246300020002000204020402370037003C024467
:1024730002000239000002000265020002350281F7
:10248300020002050282028302000203007100308F
:10249300016000110070003102200350048000101D
:1024A30000610000001400630073007200620043C7
:1024B30000000013000600000000000400120000EA
:1024C3000000000000000004000400370037003C57
:1024D3000244000000000000000000650000003519
:1024E300008100000005000000830000000103716B
:1024F3000301030103010301030103220302030197
:1025030003100300030003000300030003000300A0
:10251300034203000324030603000300030403121E
:1025230003250323032503230304030403000300F8
:102533000300034403000300032303000365032193
:102543000035038103000305030003000300033682
:10255300000100060000000F000000000000000062
:10256300000000000003FFFF00000403FFFF000062
:10257300FFFF0FF4010005C4040320000100000B5A
:10258300000000000000000003010100871C02009E
:10259300FD1B0300031C0400091C05000F1C06009F
:1025A3001B1C1100331C1400391C15002D1CFFFFCC
:1025B3000000030003000400080010001F003E0099
:1025C3007B00F600EC01D703AF075D0FB91E713D29
:1025D30000004B167B1651165716751669166316AF
:1025E300811687168D1699165D1645163F16D5C5A5
:1025F300C5B5A5A595858575756565555545453558
:1026030035252515050A5314022314053514072906
:10261300140C11140D1D14FF00009C36063A703D76
:10262300D9404344AD47174B814EEA5100160F0082
:10263300000B150B020002220F32000006567777BB
:102643007777777777777777777777777700010279
:10265300030405060708090A0B0C0D0E0F2F17417B
:1026630017471715164D170F161B16A717C517CBA8
:1026730017AD17B917B31700034948424D1817256B
:10268300050200011916181616152303003030171A
:10269300181921301B1D1F300C0E020B040B0A07E7
:1026A30008000F303016181920231A1C1E3000386A
:1026B3003C3E363B3B352B432C6F169316BF179F7F
:1026C30016A5169B175317591765175F170005159E
:1026D3000D0910080400000000000000BE040A0EEB
:1026E300000400040C1005080F04C082C083E990A5
:1026F30004B7F0E490046CF01220B39004BBE4F050
:10270300A3F09004B8F0A3F012156D1220B9900451
:102713003CE4F0A3F09004CBE07002A3E0600990E6
:1027230004CB1247341223409026EBE493FA790248
:1027330012214F02442274F2120A7EEAFEEBFF7466
:10274300805FF9E47001E97063EEA2E0507B9004CE
:1027530071E0640F700B79001213F9E9600312281A
:10276300DF74016EFAEFFB0228CB0BEB75F003A4C9
:102773002408F8E5F03426F988828983E493FA740F
:10278300FF6A6021850882850983E06A70DCAA08F4
:10279300AB0988828983A3E493C0E0740193F58332
:1027A300D082122340AA08AB0912199F9004B7E004
:1027B300F91219AB8A088B09EA7001EB60047B00FC
:1027C30080A9EEFA74806F809D54207003022897CD
:1027D300750A007C027D007A201228D47C007904DB
:1027E3007A007B001214898A088B09800D74018892
:1027F300828983F0850C08850D09E5087002E509D7
:10280300606D7C007904AA08AB091214898A0C8BC9
:102813000D750A01E5082404124A9624FFF0A3E08B
:1028230034FF12484A7002A3E070C9E5082409F88E
:10283300E5093400F9850882850983A3A3A3A3A32B
:10284300A3A3A3A3A3E0640170A3850882850983DE
:10285300A3A3A3A3A3A3E05404709274068882895C
:1028630083F07AB78508828509831229AF808512A0
:1028730014597C0079017A007B00121489EA7001F3
:10288300EB7009E50A70057A201246E074206EFAAF
:10289300EF02276974025FF9E47001E9600A121517
:1028A30067EEFA74020227C974045FF9E47001E960
:1028B30060121248401247797901122F63EEFA74BD
:1028C300046F80CD7A007B0002350CEAFCEBFD7AC5
:1028D300017B009004B7E0F9121AA1229012C712EB
:1028E30045CA12140B22C082C08374EA1210A58554
:1028F3001082851183AA82AB83794B122125740838
:102903001212CF7402F074091212CFAA82AB837928
:102913005012212574131212CF124B7812214374D3
:102923001602441F74F4120A7EEAFEEBFF750801D7
:102933008E828F83A3A3A3A3A3A3E0544060098E35
:10294300828F83124FBF80031214E974FE6A7003EF
:1029530074FF6B60308E828F8312473412472E12BE
:10296300153DE98E828F8360061229A8E480051243
:1029730029A87401123928FAA3E0FB122149E9F5C9
:1029830009700580127509CDAA098E828F831229D9
:10299300AFE96003750800A908EEFAEFFB121465AE
:1029A300A9090239E9E0240D12405D22E0240C124A
:1029B30029BAF912140522F8124062E02274F612C1
:1029C3000A7EE9FEEAFF7A0F7B00121999EA700189
:1029D300EB6019740C8A828B83F0EEA3A3F0EF8A69
:1029E300828B83A3F0124788790080027910024713
:1029F3006FC082C083900471E0640F7018EA7001A5
:102A0300EB601290046CE0FC74086C600574046C59
:102A130070031228CE024422F508EF3400F5092290
:102A2300124861640222850882850983123F4A9015
:102A3300045DE0682274F0120A7E74FD1210A58A08
:102A43000A8B0BEA24021238FF8A088B09EA700109
:102A5300EB7003022B42850A82850B83A3AE82AF00
:102A630083E064F16014E064CD600FE0641A600AEF
:102A7300E064E96005E064E1701E7900121465E921
:102A83006016850882850983A3A3A3A3A3A3E044B7
:102A930020F0A3E0F0022B278E828F83E0C0E07446
:102AA300021212CFD0E0124AB1124DCB1233E1120F
:102AB30046DA851082851183AA82AB8370051213CF
:102AC3008780031215258E828F83E064F16055E0C1
:102AD30064CD6050E0641A604BE064E16046E064FA
:102AE300F0604174021212CFE0FC74B76C6035855C
:102AF30008828509831245C6750C01780C121001F2
:102B0300ECF50C780C121001E50A240CF582E50BA8
:102B1300122E5212340DFCA3E0FD8A828B831234F1
:102B23002712102BE5082409F582E509122A2370E0
:102B3300037406F0850E82850F83E0F912146B127D
:102B430014599012CB1228E2740302486974F512E7
:102B53000A7EEAFEEBFF750A00EE2409122E5612D6
:102B63002BB47003750A01122A297003A3E069705C
:102B730006E50AD2E1F50A8E828F83A3A3E0FAE584
:102B83000A6011EA7006E50AD2E5801EE50AD2E67C
:102B9300F50A8003EA6015EE241DF582EF34001276
:102BA3002BBA64016006E50AC2E0F50AA90A024BE2
:102BB30073124972640222F583123A49F912152BF2
:102BC300E92274F0120A7E74DB1210A5EAFEEBFF11
:102BD300EE2404122E56E060109012C9E07002A396
:102BE300E060069012C91228E2EE2402122E447409
:102BF300061212CFAC82AD83850882850983123415
:102C030003FAA3E0FB1214C5EE241BF582EF123D79
:102C13006074131212CF12477974061212CFAA826C
:102C2300AB83121417E9851082851183F0740C129B
:102C330012CFE0601E741D1212CFE0FD7407121252
:102C4300CFE0FC1245C079011221CDE96003022EC9
:102C53003F8014900454E0600E851082851183E058
:102C6300A2E14003022E3FEE2412F50AEF3400F5F1
:102C73000BEE242A122A1BEE242C122E4F12312083
:102C8300E0687003A3E069701D750C00780C1210E6
:102C930001780C121001EE242E1246D7F9122E637E
:102CA30012342712102B74091212CFE0FA90045A2F
:102CB300E06A6003022E3F740C1212CFE07003022D
:102CC3002D88122E631245C612158B74011212CF72
:102CD30012472E74011212CFE07002A3E0700302B8
:102CE3002E3F74071212CFE0F8850E82850F83E022
:102CF30028F8A3E03400F9740D28F582E439F5834C
:102D0300E0FA74011212CFE02403122E7A6A601DD6
:102D1300EAF09081BA780812128574011212CF1268
:102D23004734124DC7A3E50AF0A3E50BF079047409
:102D3300071212CFE0FA850E82850F83E02AFCA3E7
:102D4300E034008C82F583A3AA82AB8312198D8AA7
:102D5300088B098C0A8D0B74011212CF122E737813
:102D63000C121285780C79081212085003022E3FB8
:102D73009081D2780812117274011212CF122E733D
:102D8300780812127690046CE0FA74046A6008748E
:102D9300096A6003022E3F851082851183E0A2E554
:102DA3005055EE242E1246D7C0E074031212CFD032
:102DB300E0F0EE242F1246D7C0E074041212CFD0F5
:102DC300E0F0EE24301246D7C0E074051212CFD0E3
:102DD300E0F0EE2424122E4F120E3E74071212CF8F
:102DE300AC82AD83740A1212CFAA82AB8312138D05
:102DF300740412102B8045A2E6504174231212CFA3
:102E0300123A45FA74046A7018741D1212CFE06402
:102E130002702974061212CFAA82AB83121519808D
:102E23001B74076A7016741D1212CFE06404700CD1
:102E330074061212CFAA82AB8312151374250248AB
:102E430069F50EEF3400F50F22EE240BF582EF1235
:102E5300479C22F508EF3400F509850882F58322A3
:102E6300850882850983123E91850A82850B832218
:102E7300124989A3A3A322F81229BB2274F6120ACA
:102E83007E74F71210A58A088B0990046CE0FA741B
:102E9300036A600D74016A600874096A6003022F93
:102EA3005E8508828B83A3AE82AF83E06003022F2B
:102EB300437C007D007A027B001220BFE5082402D8
:102EC300124A8A123D6390045D12477979531221A5
:102ED3002B7900122F6390046CE06409600990045D
:102EE3006A1245C61215857401124763740490046F
:102EF3006CF074011212CFAA82AB83794A12212596
:102F030074011212CFAC82AD837A627B041220D794
:102F130090045D123E8D7A037B001220BF90046003
:102F2300123E8D7A047B001220BF900457E0A2E387
:102F33005004D2F08002C2F01247491228DF8018F1
:102F4300FC7D007A037B101220BF8E828F83E0F911
:102F5300122F63E490046CF0121441740902476C5D
:102F630090046A1245CA12139922C082C083900446
:102F73003CE07002A3E0704190046CE0120F230068
:102F830003018F2F059E2F06AD2FBC2F900444E025
:102F93007002A3E06076900444806B900440E0707C
:102FA30002A3E06067900440805C900442E07002FA
:102FB300A3E06058900442804D90043CE07002A36B
:102FC300E06009123676FC74016C7023790090047A
:102FD300B8800909EA124CAFEB122E52123BFE7075
:102FE30001EB70EF9004B81245C6121393801D7461
:102FF300026C700512155B80139004CDE07002A380
:10300300E060099004CD1247341223400244227435
:10301300F4120A7E74FB1210A58A088B0912310F71
:103023007001EF700302310A74028E828F83124B98
:10303300797950122125850882850983A385820821
:10304300858309E060030230F890046A124FCD7063
:103053000374FF69602F74FE68700374FF69602551
:10306300851082851183E0687003A3E0696016749C
:10307300EA8508828509831234397A6A7B04795098
:1030830012212B8070851082851183123120124703
:10309300797A5D7B04795312212590045D1247747C
:1030A3007A607B04794B1221257A5F7B0479E112E4
:1030B3002125900471E0C3940F502290045FE0C077
:1030C300E074021212CFD0E0F074041212CF740134
:1030D300F074021212CFAA82AB8312213D750A004B
:1030E300780A121001780A1210019012E5E0F91221
:1030F300341E12102B8508828509831233F8F0746D
:103103000390046C12477F74050239E67A0F7B0043
:103113001219998A0A8B0BAE0AAF0BEE22123F4AA1
:1031230090046A2274F0120A7E74ED1210A58A824A
:103133008B83A31233E7EA2408FEEB124DE18E8260
:103143008F8312340DFAA3E0FB1214478510828596
:103153001183E070688E828F83E0C3940B405E8599
:103163000882850983A3A3A3A3A3A3A3A3E0640263
:10317300704B90046CE0FAE5082409F50EE509129A
:103183002E4774026A603B74066A603690043CE022
:103193007002A3E060071236766401605574086A12
:1031A300600574046A701674021212CFE0F9740792
:1031B3001212CFAC82AD831245C012144D741302A8
:1031C300486990043CE07002A3E07026750A007819
:1031D3000A121001780A1210011233D8122E521259
:1031E3003403FCA3E0FD850882850983123427128A
:1031F300102B9004B8124FAC9004B8E0F50AA3E08A
:10320300F50B80378E828F83E0F8A3123403687046
:1032130003A3E06970198E828F83A3A3E0FAE50804
:10322300240DF582E5091246DA6A70030232B38E81
:103233000A8F0BEE124CAFEF124FA9EE7001EF7035
:10324300C37A187B001219FF8A0C8B0DAE0CAF0DDD
:10325300EE7001EF70030231C09004B8E07002A376
:10326300E070059004B8800AE50A124CAFE50B1232
:103273002E52124FE08E828F831247A1EE240C123E
:103283002E4F74FFF0E48E828F83A3A3A3A3A31214
:103293004345A3A3A3A3123430E4F0A3F0E5082429
:1032A3000B124A961233CE12484AC41233CEA3F0FD
:1032B30074011212CF1233FDA3F074021212CF1253
:1032C30033FDF0E508240DF582E5091233F5A3F08B
:1032D30012500612488F240DFAEF3400FB740212C9
:1032E30012CFE06401600E74071212CFAC82AD837B
:1032F3001220D780097C087D0079FF121987741288
:103303001212CFE0C0E0EE2415122E4FD0E0F09061
:1033130012E5E0C0E01233D81246DAFAD0E0C39ADD
:1033230040030231C01233E1122E52A3E05480F95C
:10333300E47001E97009900E12E070030231C0EEEF
:103343002406F8EF124A99FCEE240CFAEF3400FB42
:1033530074061212CFE0700EEC705674041212CF82
:10336300E070060231C0EC601474051212CFE0C0A5
:10337300E08A828B83E0FCD0E0C39C5025850882E1
:10338300850983124B8B124CA91233D81246DAC02B
:10339300E0122E4CD0E0F074051212CFE08A828B3B
:1033A30083F074061212CFE0600774018882898368
:1033B300F074041212CFE070030231C074018E82E4
:1033C3008F83A3A3A3A3A3F00231C0540F8E828FD4
:1033D30083A3A3A322E5082410F582E50922E508C7
:1033E300240B80F5A3A31233ED22E0F508A3E0F547
:1033F300092212479C123517A32212351702522CA9
:10340300E0F9850E82850F83E022E0F98A828B83BF
:10341300A3A3A3A3A3A3A3A3A3E02290046A123E9E
:10342300919004601245CA1214FB740222A3F0EEB9
:10343300241612479922F07A5D7B0479531234449F
:103443002212212B7A607B04794B12212B2274F2F6
:10345300120A7E74F81210A58A0A8B0B8C0C8D0D40
:103463008908851082851183AC82AD83758381754C
:1034730082987408120F96F509AC0AAD0B85108279
:10348300851183AA82AB83124DD370037509019012
:1034930004B880158E828F83E0650C7004A3E06509
:1034A3000D6024EE2416122E4F124FACEE7001EF76
:1034B3006020E50960DEAC0AAD0BEE240DFAEF34B3
:1034C30000FB124DD360DC8E828F83A3A3E06508DB
:1034D30070D1EEFAEFFB740802350974F7120A7E15
:1034E3009004B8E0FAA3E0800CEA2416124FA61267
:1034F3001A05EEFAEFFBEA7001EB70ED9004B8E405
:10350300F0A3F0023D1012102B7F06020D99A312B7
:103513003517F022E002501574F2120A7EEAFEEB30
:10352300FF890B8C0C8D0D8E828F83E08C828D83B3
:10353300124345AE82AF83E01243DB123927C41234
:1035430043DB1235D7E054038C828D83123925A2D5
:10355300E2E492E08C828D83123924131313541FF7
:103563001243DBA3123924A2E7E492E08C828D8319
:10357300A3A3A3A31235D78E088F09750A00780871
:10358300120FF97C087D00E50C2407124D841210FC
:103593002BEE2408FEEF3400FF8E088F0978081203
:1035A3000FF97C037D00E50C240F124D8412102BC0
:1035B300E50C2412F8E50D3400F9E50BC3940F4034
:1035C3000A8E828F83A3A3A3E08001E48882898388
:1035D300F002350CA3A3123B4FA30EAF832274F466
:1035E300120A7E74F91210A5EAFEEBFF90043CE088
:1035F3007002A3E0601012367664027009EEFAEFEF
:10360300FB121555806890046AE06E7003A3E06FA7
:10361300705C74016960097A7E7B04124DD3704E2D
:103623007A007B029004B7E0F91222B7EA7001EB4B
:10363300703C90046D780812128585108285118381
:103643007808121276900473E0C0E074041212CF6B
:10365300D0E0F074051212CF7401F074061212CF89
:103663007402124B79121369E9609212136F740793
:103673000239E690043C12406EE02274F7120A7E8F
:103683008A828B83A3AE82AF83E0F91213B18E8259
:103693008F83E0FA74EB6A600574E16A7002E4F008
:1036A3001228DF75080178081210018E828F83E0DB
:1036B300F5087808121001790012341E12102B122B
:1036C3001459023D1074F6120A7E9004BAE0701F7A
:1036D3007C0079017A007B00121489EA7001EB60A7
:1036E3000E8A828B83E07002A3E060031213FF0251
:1036F300476FC082C083123B53401079FF1214837B
:10370300E9FA9026E7E493C39A5004790180027999
:103713000002442274F0120A7E74FF1210A5E98598
:103723001082851183F08A0A8B0B750900EA24083D
:103733001238FF8A0C8B0DAE0CAF0D750801EE70BD
:1037430001EF60030237DB850A82850B83A3A3A302
:10375300A3A3A3123918850A82850B831245C612C7
:1037630014778A0C8B0DAE0CAF0DEE7001EF700366
:103773000238F58E828F83A3A3A3A3E4F0A3F0E51D
:103783000A240BFAE50B124DEDC0E0122E4CD0E0EB
:10379300F0121543EE240CF582EF12472B75090145
:1037A300EE2406F8EF123B62E0547FF0A3E054FCF2
:1037B300123D2BE0540460030238669012CFE0F50B
:1037C3000A750B007407780A1211AB8A828B83E0A7
:1037D300450AF0A3E0450BF0EE2406FAEF124A8DFA
:1037E300123E8D74805CF50A74035DF50B740778E3
:1037F3000A121258EE2404F50CEF3400F50DEE24F2
:1038030009122E44851082851183E0605F7402855E
:103813000E82850F83123928240D122E7AA2E250CC
:103823000F900458123D63850C82850D83124779EE
:10383300E50A70030238C4747F5CFC74FC5DFD749C
:10384300FF250AF50A74FF3400F50B7407780A1292
:1038530011ABE50A4CF8E50B4DF98A828B831247CD
:1038630079805EE04480F0A3E00237DAE50A700570
:10387300750800804CEC542060151219938A0A7461
:103883007F550AF8745F28850C82850D83801BECB5
:103893005410600E1219938A0A740F550AF87401B2
:1038A30080E4850C82850D837401F0A3E4F0740435
:1038B300850E82850F83123B6B7001EB7003123907
:1038C3000B74016509702E850C82850D83123918DE
:1038D300EEFAEFFB12147DE9601BEE240C122E4F5F
:1038E300123BFE7001EB6003121A05EEFAEFFB12B6
:1038F3001A05750800A9087401024869F50EEB1250
:103903004FF7E0F912148F227A207B009004B7E07E
:10391300F91219C922123E91850E82850F83E0F9AF
:1039230022A3A3A3A3123B4FE02274F4120A7E75D1
:10393300080012148F8A0A8B0BAE0AAF0BEE7001CC
:10394300EF70030239E28E828F83A3A3A3A3A3A301
:10395300A3A3A3E0640660030239E21214A18E82DA
:103963008F83A3A3A3A3A3A3A3E05408F9E4700143
:10397300E960698E828F83123D207A007B001214E6
:1039830071EA7001EB705590046A123E8D8E828F3E
:10399300831245C61221557C007D007A007B00808E
:1039A300258E828F83123D157004A3E064FF602C83
:1039B30090046A123E8D121E43E9641A601E7C0055
:1039C3007D00EEFAEFFB1214718A088B09AE08AF83
:1039D30009EE7001EF70CA790012215B750801A925
:1039E30008800312102B7F04020D9974F7120A7ECC
:1039F3008A828B83E5827002E58370099004BB8021
:103A0300068A828B83A3A3123BFE7001EB602C8A90
:103A1300828B83A3A3A3A3A3A3A3E05408F9E47015
:103A230001E960DDEC7001ED60158A828B83123A47
:103A3300456C7003A3E06D70C880047A007B0002BC
:103A43003D10123A492212473CE02274F2120A7ED8
:103A53008A088B09890AECFEEDFF7A0E7B001219A6
:103A6300FFEA7001EB603EE48A828B83A3A3A3A3E6
:103A7300A3A3A3A3123AABE50A123D2BA3A3124FB0
:103A8300DC8A828B83A3A3A3A3E4F0123AAB123D97
:103A930029124DCBEA240CF582EB1251CA123D2AAE
:103AA300A3A3F0A3F002350C124FD402522E74F5E7
:103AB300120A7EEAFEEBFF890A8C088D09EE70017B
:103AC300EF605C7401650A70147901121483E9FADA
:103AD3009026EAE493C39A500F7911806C740465BD
:103AE3000A7036123B5340F18E828F83A3A3A3A3A4
:103AF300A3A3A3A3A3E50A123B4F124DC78E828F44
:103B030083A3A3E4F0A3F09004BBE07002A3E090CE
:103B130004BB6024123D63800A7402650A60C9799C
:103B2300C18026E824020808E9123B62123C337084
:103B330001E970EF8A828B83EEF0A3EF123B6B7087
:103B430001EB700312390B7900024B73F00250152D
:103B53007904121483E9FA9026E9E493C39A223490
:103B630000F9E8FAE9023D32F07A207B009004B7CD
:103B7300E0F91222B7EA22C082C083E9FC790090FF
:103B830004BB801D8A828B83A3A3A3A3A3A3A3A3A4
:103B9300A3E06C600574FF6C7001098A828B83A3B8
:103BA300A3123BFE7001EB70DB02442274F7120A8E
:103BB3007E8A828B83E5827002E58370099004BB61
:103BC30080068A828B83A3A3123BFE7001EB6024E1
:103BD3008A828B83A3A3A3A3A3A3A3A3A3E0697054
:103BE300E1EC60148A828B83E0240D124CC8A2E2BC
:103BF30040D080047A007B00023D101245CAEA22BD
:103C0300C082C0839004BB80068A828B83A3A312E5
:103C13003BFE7001EB60128A828B83A3A3A3A3A351
:103C2300A3A3A3E06970E280047A007B000244222C
:103C3300123F4AE82274F1120A7E8A0A8B0B8C0C1B
:103C43008D0D750800750900EA7001EB602E900474
:103C5300BB80068E828F83A3A3124FACEE7001EF5D
:103C6300601AAC0CAD0DEEFAEFFB850A82850B836F
:103C7300122340E9640170DB8E088F09AA08AB099F
:103C83007F07020D9974F7120A7E9004BB123D63FD
:103C93007C007D008007E8FCE9FD123D63E87001CC
:103CA300E9603AE82402F582E9122E52EA687002CA
:103CB300EB6970E21245C69004BB124FACE86E701C
:103CC30002E96F70099004BBEAF0A3EB800EEAF8F7
:103CD300EBF98C828D83A3A3E8F0A3E9F0023D10F6
:103CE30074F7120A7EEAFEEBFFEE7001EF60161224
:103CF300149B123D38EA7001EB6003121A05EEFAC9
:103D0300EFFB121A05023D10741F12102B7F0102E4
:103D13000D991245CA8A828B83E064FF22123A49C5
:103D2300FCA3E0FD22A3A3A3123D2F22F08001FBFD
:103D33008A828B83228E828F83E0241C1229BAFA13
:103D4300A3E0FB121A058E828F83124FB6EE240C6A
:103D53001247991245CA22EA240BF582EB12479CBB
:103D6300123F4A2274F0120A7E74FC1210A5EAFE76
:103D7300EBFF12145FE960057911023E85EE240220
:103D8300F50EEF124FF312496E6006EE2412125134
:103D9300C7EE24131246D77003741EF0EE2411F8F5
:103DA300EF1248897019900EBDE0600D900454E045
:103DB300700D8E828F83E07006E488828983F0EE33
:103DC3002414080808EF124A99700F900449E088F8
:103DD300828983F0900449E004F0EE12487F8E82DA
:103DE3008F83E064017017122E4C123A45640270FF
:103DF3000D850A82850B83E04440F0A3E0F0851033
:103E030082851183AC82AD83EEFAEFFB1214B98A7B
:103E1300088B09850E82850F83123E8DEA7001EBB4
:103E2300605C8E828F83E0C0E074011212CFD0E019
:103E3300F074021212CF124FE074011212CF858276
:103E43000C85830D780C120FFD850A82850B831276
:103E53000E42EE240E1246D7F50A780A12100174A8
:103E6300051212CFE0F91214B3740512102BE9FEF8
:103E730074106E700BAA08AB09121A0580027E102B
:103E8300EEF97404024869124799123E9122E00246
:103E93003D23C082C08374DE1210A58A828B83A364
:103EA300A3A3A3123D63740E1212CFE8F0A3E91289
:103EB3003F41740C1212CF123F3A240DF582EB12DC
:103EC30046DAC0E0741A1212CFD0E0F0123D5A74F1
:103ED300201212CF123F3A2415F582EB1246DAC0B4
:103EE300E074081212CFD0E0F0EA241C123D5D7496
:103EF300121212CF12477974FF851082851183F055
:103F030074011212CF74FFF074021212CF74FFF017
:103F13009081BA120E3E74041212CFAC82AD837438
:103F2300071212CFAA82AB8312138D740412102BC3
:103F33007900742202441FE8F0A3E9F0EA22123D5B
:103F43002FA3A3123F4A22E0F8A3E0F92274F01250
:103F53000A7E74EE1210A574101212CF12472E8C23
:103F6300088D09890B74221212CFE0F50C74231209
:103F730012CF124FAC74251212CFE0F50EA3E0F569
:103F83000F750A107A1E7B001219FF74021212CFEA
:103F9300124FC51212CFE07002A3E0700302405229
:103FA300851082851183AA82AB8379501245EB1267
:103FB30012CF124068A3124FC51212CFE0240B1286
:103FC30040597402F01212CF1240687402F01212B8
:103FD300CF124734124DCB74021212CF124AA2E50C
:103FE3000BF074021212CFE0240C124059E50CF0CE
:103FF30074101212CF1245F41212CFE0241C124097
:104003005912472E74081212CF124FE0740A12127B
:10401300CFE50CF0850E82850F83C082C083740DBB
:104023001212CFAC82AD83D083D0827403120F9669
:10403300F974021212CFAA82AB83121465E96401E8
:104043007005750A00800874021212CF124FB2A9CC
:104053000A741202486912405D22F812406222A3D8
:10406300E01252962212406EA3A32212498D0252ED
:104073002E74F0120A7EEAFEEBFF8C088D09740899
:104083008E828F83123430E0600874108E828F83A7
:10409300A3F0EE24171246D760098E828F83A3E024
:1040A3002408F01246D46005750E0E8003750E00C9
:1040B3008E828F83A3E0C0E0EE240D122E4FD0E05A
:1040C300FAE02A250E8C828D83F01246D460139079
:1040D3000455E0F91221C7E9FA850882850983E0CE
:1040E3002AF0850882850983E0FAC39475400302A8
:1040F30041C87B001219FF8A0C8B0DEA7001EB702B
:10410300030241CEEEFAEFFB1214BFEA850C82855F
:104113000D8312472FEE2402F81241D51241E7F026
:10412300EE240408081241D5A3A31241E7A3A31266
:1041330047911241E0F0EE2414122E4F1241E0A3F6
:10414300F0750808EE24161246D76010EE241812F4
:104153003E8AE50C2408124D7A750810EE241712D6
:1041630046D7600DEE241A123E8AE50C2508124D3F
:104173007A122E4C124D99120FF9EE240D1246D7D6
:10418300FC7D008E828F83A3E0F8E50C28F8E50D13
:104193003400F9E50E28FAE439124D8D12102B1272
:1041A30046D46027EE240D1246D7FD8E828F83A35B
:1041B300E0FCAA0CAB0D79001221CDE9600DAA0C2D
:1041C300AB0D121A05750C00750D00AA0CAB0D0290
:1041D300486CEF124A9D850C82850D83221241EEB5
:1041E300A3A3A3221241F91241EE22E0850C82859A
:1041F3000D83A3A3A322A3A312484FA32274F612F1
:104203000A7E8A828B83E0FC90045A1242897402EC
:1042130078081211ABE5084CFCAD09EA24121242EE
:1042230083740678081211ABE5084CFCE5094DFDD3
:10423300EA2411124283740978081211ABE5094D7F
:10424300FDEA2416124283740B78081211ABE509B8
:104253004DFDEA2417124283740C78081211ABE562
:10426300094DFD8A828B83A3A3A3A3A3A31242892F
:10427300740A78081211ABECFAE5094DFB02476F9B
:10428300F582EB12479CE0F5087509002274F412DD
:104293000A7E8A088B09ECFEEDFFE98E828F83F09C
:1042A30012454DC0E0EE2411122E4FD0E0124547C7
:1042B300C0E0EE2412122E4FD0E0124345A882A98B
:1042C300831245126010E5082408FAE5093400FB5F
:1042D300EE241312434A8E828F83A3A3A3A3A3A323
:1042E300A3A3E0601588828983E0FAE5082AFAE54A
:1042F300093400FBEE241512434A88828983E0FACD
:104303008A0AE508250A1245038C828D8312488F99
:104313002417122A1B8E828F83E0C39A8508828515
:104323000983125220E06017850882850983E024FF
:10433300F2F012452B850882850983E0C39AF002C7
:1043430039E9123B4FA322124799EAF0A3EB124833
:104353004FE02408F02274F4120A7E8A088B09EADB
:104363001243D2F0EA1313543F1243DBA3A3A3F087
:10437300EAC413131243D2A3A3F0E48C828D83A364
:10438300A3A3A3A3F08A0A8B0B7409780A12125809
:10439300E50A1243C9F0EC2418F582ED1251CA8ADA
:1043A3000A8B0B740B780A121258E50A1243C4F0F5
:1043B300740C7808121258E5081243C4A3F00239AA
:1043C300E91243C9A32254018C828D8302522D54D6
:1043D300038C828D83A3A322540F8C828D8322C0EE
:1043E30082C0837900900454124B96A3A3A3E06088
:1043F3000FEC70268A828B83A3A3E0701D09801AB9
:10440300EC60178A828B83A3A3A3A3A3A3A3A3A371
:10441300124F007003A3E06B70E3800312102BD0E4
:1044230083D082020D2A74F1120A7E8A088B0989CD
:104433000EECFEEDFF12454DC0E0EE2411122E4F9F
:10444300D0E0124547C0E0EE2412122E4FD0E01206
:10445300434585820A85830B1245126010E50824C3
:1044630008F8E5093400F9EE241312451A8E828FF9
:1044730083A3A3A3A3A3A3A3A3E06017850A8285B1
:104483000B83E0F8E50828F8E5093400F9EE241574
:1044930012451AEEFAEFFB1214D1E9FA705D850AA0
:1044A30082850B83E0FB8B0CE508250C1245038EFC
:1044B300828F83A3A3A3A3A3A3E070188C828D830D
:1044C300124779E50EC39BC0E0EE2417122E4FD09E
:1044D300E0F0802712452B850A82850B83E0FCE5FB
:1044E3000EC39C24F2C39AFDEE2417122E4FEDF057
:1044F300AA08AB0979011221CDE9FAEAF9023C8352
:10450300F8E5093400F9EE241DFCEF3400FD2274B4
:1045130008125224A3E022124799E8F0A3E9F08598
:104523000A82850B83024354E8240EF8E93400F928
:104533008C828D83E8F0A3E9F0900455E0F9122111
:10454300C7E9FA221248710234198A828B83124511
:10455300CA1214CB850882850983A3A312458CE074
:10456300F9EA8E828F83A3A3A3A3A3A3A3A3A31276
:10457300459812458CA3A3E0F9EAF8EE240B124701
:1045830099E8124598A3A3E022E0FA8508828509F9
:1045930083A3A3A322F0A3E912487522C082C08398
:1045A3007AC07B0479E21221257AC07B040244227B
:1045B300C082C08390045D1245C6024422850E82E8
:1045C300850F831245CA22E0FAA3E0FB22C082C012
:1045D3008374FE1210A5851082851183AA82AB8392
:1045E300794B1245EB02441F122125851082851158
:1045F300831245CA740222C082C083794A122125DC
:1046030002442274F6120A7E9004C8E0FE04F0EE1F
:10461300F912148FEA7001EB70EEEE60EBF90247CA
:104623006F74F0120A7EEAFEEBFF8C0E8D0F890881
:1046330074101212CFE0F50D74111212CFE0F50CC5
:1046430075090012158B8A0A8B0BA80AA90BE8704F
:1046530001E97013E50C7058A908AC0EAD0FEEFA22
:10466300EFFB1215918067E508601AE82402F582D2
:10467300E91246DAFAE5082AFAE4340013EA13F0F9
:1046830070037401F0E50C6045E50D7010888289B4
:1046930083E0600214F0E49004CFF080319004CF03
:1046A300E004F0FA9012D0E06A70237509018003E8
:1046B300E4601BE50960171214E9EA6E7002EB6F00
:1046C300700CEEFAEFFB79011213AB1246DE0248CF
:1046D3006CEE2411F582EF124861227A017B00907F
:1046E30004B7E0F9121AA722C082C08374016A706A
:1046F30001EB70077A0112390D80149012C712472B
:104703002EEA7001EB60051228CE80031246DE020A
:104713004422C082C0839012C912472E024422C091
:1047230082C0839012CB80F112479CEAF0A3EBF096
:10473300221247382212473C2212474022E0F8A3B4
:10474300E0F583888222A2F0E492E012475779527F
:1047530012212B22851082851183F0AA82AB83223A
:10476300124757794212212B2212102B7F02020D7E
:1047730099125010A3A3E8F0A3E9F022F0124784A2
:1047830022EEFAEFFB9004B7E0F91219A522F0EE3E
:10479300241312479922F582EF3400F58322A3A351
:1047A300A3A3A3A3A3A3A374FEF0A374FFF0227493
:1047B300F4120A7E8A088B097A007B041246E212FD
:1047C3004840124779740990046CF01214DD8A0A88
:1047D3008B0BAC0AAD0BE5082413F582E509122E09
:1047E300521245C6124DD36401704F12310F70013E
:1047F300EF604774028E828F83F0E508241DF8E58D
:10480300091252921245C68A828B83A3124B9BE0F4
:10481300FBEC8E828F83A3A3F0A3EB12484AF8A389
:10482300E0F5838882A3A3A3123517124853FAA392
:10483300E0FB794A12212B1247840239E990043EA6
:10484300123F4A9012CB2212484FE022F00250014D
:10485300A3F0E5082415F582E50912486122340026
:10486300F583E022740212102B7F08020D9912487F
:104873007522F085088285098302522F240FF50AD9
:10488300EF3400F50B22124A9D640122E8F0A3E9FC
:10489300F0EE2274F4120A7E74F31210A5EAFEEB12
:1048A300FF7C0D7D007900851082851183AA82AB80
:1048B30083121987EE12497CF854206008740C1295
:1048C30012CF7401F0E854806008740B1212CF7495
:1048D30001F0E85440600A740A1212CF7401F080A8
:1048E3000A740A1212CFE064017005EE24138003E8
:1048F300EE2415123E8A74021212CFAA82AB8312DF
:1049030020D7EE240B122E56124A1B124779740A33
:104913001212CFE064017034124961703C1214E941
:104923008A0A8B0BA80AA90B850882850983E0688C
:104933007003A3E06970221214DDEAFCEBFD74023C
:104943001212CFAA82AB83124DD3600D85108285DC
:104953001183AA82AB831213A5740D0239E68E82EA
:104963008F83A3A3A3A3A3A3A3A3A312497222E0A8
:10497300FAA3E0FB12153DE922241DF582EF12474D
:104983009C124989E02212498D22124740A32274C6
:10499300F6120A7E74F31210A58A088B09ECFEED59
:1049A300FF7C0D7D007900851082851183AA82AB7F
:1049B3008312514BA3A3A3A3A3A3A3A3A3124A1B91
:1049C30012488F12497CFAA2E55008740B1212CFD9
:1049D3007401F0EAA2E75008740A1212CF7401F0CE
:1049E300EAA2E6EE5004241380022415123E8A74D0
:1049F300021212CFAA82AB831220D78508828509BF
:104A030083A3A3E0C0E0740C1212CFD0E0124B7961
:104A130012139F740D02476C123F4A851082851151
:104A2300832274F7120A7E74E11210A5EAFEEBFFEB
:104A33008E828F83124BA4EA2406F8EB124A99A2C2
:104A4300E0504154FEF0A3E0124AA98A828B8312FC
:104A53004AA2124D94E0241CFAA3E0124A8D124597
:104A6300C61214D7E9701D741D1212CF123A456491
:104A7300047011851082851183AC82AD83EEFAEF49
:104A8300FB12151F023D0BFAE509124A912234006D
:104A9300023D32F8E509124A9D22125296E022E0C5
:104AA300241B12405D22124AB1AC82AD8322F00274
:104AB3004A1EE9FA790074046A600A740A6A600596
:104AC30074036A700109020D2A74F6120A7E7420B7
:104AD3008A828B83F07401A3A3F012135DEA700141
:104AE300EB600774018A828B83F002476FC082C038
:104AF3008374019004BDF0E9A2E350037403F0E969
:104B0300A2E15004E0D2E2F002442274F6120A7EDB
:104B130079007C008A088B097808120CD2F8FF0709
:104B2300414B3F4B3F4B3F4B3F4B384B3C4B414B38
:104B3300354B0C80097C0480050C80F67C089004BE
:104B4300BDE05C6003098003EC60010902476F74F8
:104B5300F6120A7E8A828B83E0700EA3123BFE70EC
:104B630001EB60051222AB80047A007B0002476FE1
:104B73007F03020D99E4124B7D22124B8122F085B3
:104B8300108285118302475E123E918E828F83A32A
:104B930002522B124B9BA322E0FC8A828B83A3A39A
:104BA30022123F4AE8FAE9FB2274F0120A7E74F3F8
:104BB3001210A574031212CF124CA98A0E8B0F89FF
:104BC3000B741D1212CFE0F50A7E01EE1212CF74A0
:104BD3000AF0E97007E50AC333240AF085108285D9
:104BE3001183AA82AB831215318A088B09EA7001FB
:104BF300EB7003024CA2124FA37409124DBA450A7B
:104C0300124DB11212CF124DA7E50B70307A00800E
:104C130026EAC333F8E433F9741E1212CFE028F8FE
:104C2300A3E039F988828983124CBE888289831272
:104C33003511A30EAF830AEAC3950A40D4E50824CD
:104C430017F582E509124CB4E508241AF582E50943
:104C530012472B74051212CFAC82AD83AA0EAB0F91
:104C6300122299E96021E508124CAFE509124FE6DB
:104C730074051212CFA882A983E5082418F582E5EA
:104C830009122E52124779850882850983A3A3E569
:104C93000EF0A3E50FF0AA08AB09121357E9FEEED5
:104CA300F9740D024869ECF0A3EDF0222416F582A5
:104CB3002212479C7401F01214DD22123517F0A35F
:104CC300AE82AF8322FEA3E03400FF8E828F83E0A7
:104CD3002274F0120A7E74FE1210A58510828511CB
:104CE3008312472E89098C0E8D0F74121212CFE096
:104CF300F508900E2FE07002A3E06078E508C33357
:104D0300FEE433FF740E2EFAE43FFB1219998A0C6A
:104D13008B0DEA7001EB605C74D48A828B83124D35
:104D2300A2F8A3124D941247778A828B83A3A3A37D
:104D3300A3E509F0AC0EAD0FEA2405FAEB124D7DA5
:104D4300E50C240DF582E50D122E52E508F07413DF
:104D53001212CF124D99120FF9EEFCEFFDE50C2460
:104D63000E124D8412102BAA0CAB0D900E2F12476E
:104D730034122340024867FAE50D3400FB1220D7B2
:104D830022FAE50D3400124D8D22FB12197B7403B8
:104D930022E0F9023D331233ED750A00780822123E
:104DA3004AB1E022124F99124DD83400FF22F0A3EA
:104DB300AE82AF837403228E828F83F0A3E50BC48C
:104DC3003354E022A3A3A3A3E508F0A3E509F0224B
:104DD3001220D1E9221220D7EE2408FEEF2234005C
:104DE300FF851082851183024AAC124A91E0227436
:104DF300F6120A7EEAFEEBFF9004BE8013888289D6
:104E030083E06E7003A3E06F603B88828983A3A372
:104E1300123C337001E970E57A047B001219FF8AB2
:104E2300088B09A808A909E87001E9601888828934
:104E330083124FE09004BE124E4BA3A312472E9051
:104E430004BE12477902476F1245CA02500174F437
:104E5300120A7E7E009004BE80070E88828983A397
:104E6300A3123C337001E970F1EEC333FAE433FB70
:104E7300124EF77001EB60767F009004BE802288AB
:104E8300828983123E8DEFC333FAE433FBE5082AAC
:104E9300F582E5093BF583124CA90F88828983A328
:104EA300A3123C337001E970D69004B2124F007024
:104EB30003A3E06B78087016120FFDEEF50A780A6B
:104EC3001210017C7E7D04790012154F8014120F9D
:104ED300FDEEF50A780A1210017C7E7D047900123A
:104EE3001549740312102BAA08AB09121A051213E1
:104EF3006F0239E91219FF8A088B09EA221245CA9F
:104F030090045DE06A22C082C08380128A828B8310
:104F1300A3A3123D639004BE124779121A059004AD
:104F2300BE123BFE7001EB70E302442274F6120AD8
:104F33007E90046A124FAC9004C912312012477953
:104F43007AC97B04795012212B9004C9124F951210
:104F530015979004C9124FAC900E31E07002A3E094
:104F6300602D7A067B00121999EA7001EB602074B8
:104F7300D58A828B83F0E4A3A3F074018A828B83A6
:104F8300123D28124FDC900E311247341223400297
:104F9300476F124F9922E0FCA3E0FDEEFAEFFB22EC
:104FA300EA240BF582EB12479CE0FEA3E0FF2212FA
:104FB3004FB622E0FAA3E0FB121A0522123A490285
:104FC30045CBEAF0A3EBF0740222123F4A74FF6868
:104FD30022A3123D2FA3A3A322A3A3A3A3EEF0A373
:104FE300EFF02212479C7401F02208E93400F92201
:104FF300124FF7223400F50F850E82F58322888243
:10500300898322850E82850F8312501022E0F8A334
:10501300E0F98E828F8322F0EE240F1247992274D7
:10502300F7120A7E7E008008EE12518F12157F0E52
:105033009026ECE493FAEEC39A40ED023D1074F728
:10504300120A7EEAFEEBFF78007900800312511FFB
:105053001250B05042E8FAE9FBEA75F017A4FA855A
:10506300F00875F017EBA425081250A16E7003A386
:10507300E06F70D98A828B83A3A3A3A3A3A3A3A363
:10508300A3A3E06C7003A3E06D601074FF6C700366
:1050930074FF6D70B880047A007B00023D10FBEA58
:1050A30024A6FAEB3411FB8A828B83E0229026EC50
:1050B300E493FAC3E89AE994002274F6120A7E7C18
:1050C300FF7DFF7AFE7BFF1251BA7001E970467AC9
:1050D300007B008032EAFCEBFDEC75F017A4FCAE1C
:1050E300F075F017EDA42EFDEC24A6FCED3411FDB4
:1050F300EC240FF582ED1246DA7004ECF8EDF9EAD0
:1051030024010AEB3400FB9026ECE493FCC3EA9CF5
:10511300EB940040C0E8FAE9FB02476FE824010280
:105123004FED74F7120A7EEAFEEBFFEE7001EF60BB
:105133000E1251451247AA8E828F83A31247A102F2
:105143003D107C177D00790012198702501574F702
:10515300120A7EEAFEEBFF7508008021E508125172
:105163008F8A828B83A3A3A3A3A3A3A3A3A3A3E055
:105173006E7003A3E06F600312157F05089026ECA1
:10518300E493FAE508C39A40D3023D1075F017A4DF
:1051930024A6FAE5F03411FB2274F6120A7E1251AA
:1051A300BA7001E9600AE8240DFAE93400FB8004CF
:1051B3007A007B0002476F1215738A088B09A808CF
:1051C300A909E822F582EF12479CE4F02274F01259
:1051D3000A7E8A0E8B0F8C0A8D0B8908125213706C
:1051E30001EF6029125145E50EF0A3E50F1252209D
:1051F300A3A3A3A3E50AF0A3E50B12501AE50870D5
:10520300027401F0EE240E122E4F12523402486C37
:105213001215798A0C8B0DAE0CAF0DEE22125224AF
:1052230022F08E828F838002A3A3A3A3A3A3A3A3AD
:10523300227401F0EE240D1247997402F02274F5E2
:10524300120A7E8A088B09ECFEEDFF750A00800DB9
:10525300EE6C7002EF6D600312157F050A9026EC69
:10526300E493FAE50AC39A5021E50A12518FEA241E
:105273000A125290123E8DE5086C7003E5096D70B9
:10528300CF88828983124FE080D1024B73F8EB12EF
:105293005296223400F9025001C082C08374F8127E
:1052A30010A5851082851183AC82AD8375838175CA
:1052B30082907408120F96851082851183AC82AD9B
:1052C30083124DD36401700479008002790174085C
:1052D30002441FF582EB126F23A2E222E0F5087568
:1052E3000900750A00750B0022740912102B7F0444
:1052F300020D99126F23A2E5221279CFE822EE2440
:1053030012FAEF3400FB12170BE922790512171773
:10531300740222E0FAA3E0F9EA22740212102B7F4E
:1053230006020D991218019005471279CF7A147B62
:10533300002234000265D2E024FFF8A3E034FFF931
:10534300228882898322125BF512102B02537E126C
:105353005D22E4F022E08E828F8312536122F012E9
:10536300536622EE24FF1EEF34FFFF22A3A3E0FCCB
:10537300A3E0FD22EEFAEFFB1217EF7F08020D996F
:105383007AD07B041219BD740222A2AFE492E0FA30
:10539300C2AF9004D7E004F0EAA2E092AF22AA825F
:1053A300AB831220D78E828F83A3A31259A5E02249
:1053B30012102B025E54EE240EF582EF125D2222B0
:1053C300EE240DF582EF126F23640122E0FEA3E0C9
:1053D300FFEE227F07020D99FAEF3400FB79E11209
:1053E3001795221253EA22125F55A3A3A3A3A32264
:1053F300EE2412FCEF3400FD22C082C083800A7ABF
:10540300D07B041219B712199F9004D0E07002A345
:10541300E070EC9004D2E07002A3E0600C7AD27BDF
:10542300041219B712199F80EA9004D0E4F0A3F094
:105433009004D6F09004D7F09004D88003F0A3E052
:10544300F0025ACC74F4120A7E8908E924B1F58279
:10545300E43426F583E493FEFA7B00121999EA708B
:1054630001EB600F126D0DE48A828B83A3A3A3A3C8
:10547300F080297A027B00121999EA7001EB601817
:10548300E5082490F582E43426F583E4938A828B3D
:1054930083F0741AA31257CA7A007B000252F1C038
:1054A30008740629FBEAA2E0501EEB75F00A84AAF1
:1054B300F0EA6014740A2BC39AFBEAC39405400410
:1054C300740A2BFB740B2BFBE9C39413400478146D
:1054D30080027806E82BFB8B0874092508F8E4346E
:1054E30000F97A0A7B00120826E8F9D008020D2A8F
:1054F300C082C0839004F4E05402600A122167E979
:105503006004790180027900025ACCC082C0839082
:1055130004F4E0540260199004D6E0700F9004D9AB
:10552300E07002A3E060091255385004790180024B
:105533007900025ACC9004D9E024101259BDA2E795
:1055430022C082C0839004D8E0C0E09081B3E0FC25
:10555300D0E0C39C500512199980047A007B0002A5
:105563005ACCC082C08312199F025ACC74F6120A15
:105573007EEAFEEBFF8E828F83A3A3A3A3A3E01295
:105583000DD7000364569155E3556456F4559005C1
:1055930027E0640F60131216D5E9700DEEFAEFFBE6
:1055A3009012861259A112234090054FE08E828FEC
:1055B30083A3A3A3A3A3A3F074148E828F83F0EE1B
:1055C300FCEFFD7AD27B041219B1A2AFE492E0FAA8
:1055D300C2AF9004D812539879201216C3026132D5
:1055E3001216CFE96007740D12567980F074158096
:1055F300C98E828F83A3A3A3A3E060658E828F836A
:10560300A3A3A3A314F0EE2402EF34000A0AFB8A37
:10561300828B831252FCFCE9FD8C828D83E0F508BA
:10562300EE2405F8EF12566EE5081272DAA882A985
:10563300838A828B83126D1DE50860258E828F839A
:10564300A3A3A3A3A3E0C3940A5016EE2405125602
:1056530072240A8E828F83F088828983E004025544
:10566300C1EEFAEFFB12199F0255E0126B9522F877
:10567300EF126B95E0228E828F83125A39122161C9
:1056830022C082C0839004DBE07002A3E0600B9031
:1056930004DB1259A112234080027900025ACC7410
:1056A300F7120A7EEAFEEBFFEE240D1253BC7401DF
:1056B300F0EE242F12570BC0E01253B9D0E0F0EEF6
:1056C300243012570BC0E0EE24121253BCD0E01268
:1056D3006BB8C0E0EE24131253BCD0E0F0EE242BE1
:1056E3001253BC120E42EE2422FCEF3400FDEE24D2
:1056F3002D12570BF9125CF312102BE97007EEFA17
:10570300EFFB121609025E54F582EF126F2322C0DB
:1057130082C0831216D5E9600479208002790102E0
:105723005ACCC082C083EA126847E0D2E0025443F5
:10573300C082C0831268401253C970111257BF4010
:105743000C8A828B83A3E0F91216C9806CEA126873
:105753002FEB12570EA2E650128A828B83A3E0F935
:105763009012881259A1122340804E12684012539E
:10577300C970091257BF5004743080368A828B83F4
:10578300A3E0641B7004742280288A828B83A3E0C5
:10579300700F12684012570E24A6F582E434268057
:1057A3000D12684012570E2490F582E43426F583D7
:1057B300E4938A828B831257CA025ACCEA12682F67
:1057C300EB126F23A2E322F09004F1E0F91219A582
:1057D30022C082C0839004D9E07002A3E06043E951
:1057E3007006125897E4801A741B6970389004D9B4
:1057F300E0240DFAA3E0125335E0640570E4125877
:1058030097E91258A01215F79004D9E0240E125507
:105813003E5003126FCD9004D9E4F0A3F079101237
:1058230016C3025ACC74E96970499004D9126B8388
:10583300E09004D96036E0240E181818125893A289
:10584300E29004D9E0400F24110808081258931479
:10585300F012208380CC240F08125893C2E7125809
:10586300A09012841259A1122340809C12589A745A
:10587300E9808F741C6970869004D9125DFB9012C5
:105883008E1259A11223409004D9E4F0A3F0809220
:105893001259BE229004D9E01259A6A322F0900413
:1058A300D9125DFF2274F4120A7E750A00750B008B
:1058B300A2AFE492E0FEC2AF9004D9E07002A3E08D
:1058C3006008EEA2E092AF02598190128C1259A1A6
:1058D300122340E94410FA9004D0801285080A8507
:1058E300090BE50824FBF582E50934FFF58312591A
:1058F30094E5087002E50960C91259895A6A70DC97
:10590300780A120FFDAC08AD0912538312102B90C5
:1059130004D9E508F0A3E509F01255384063900473
:10592300D7E014F0EEA2E092AF9004D9E0240E1871
:1059330018A3E03400F9E8FEE9FF8E828F83E0FAD2
:105943001259AEF91215BBE99004D4F0A3E412681E
:105953005CE0A2E750189004D9E0241212599C127B
:105963001F879004D9E0241312599C121F7B9004C3
:10597300D91259B6A2E1B3E492E0F912206B0252B4
:10598300F19004D6809BE50812690FE509126F2395
:1059930022E0F508A3E0F509221259BDF9221259B4
:1059A300A522E0F8A3E0F5838882229004D912604F
:1059B30081E022E0240F1259BD22F8126B8FE022FE
:1059C30074F7120A7EEAFEEBFF1216F9EE12682F45
:1059D300EF1257C4400A1253C370059081B180037C
:1059E3009081B2E0F9EEFCEFFD7AD07B041219C38B
:1059F300E9602FEEFAEFFB90128A1259A1122340AD
:105A0300EE240EF582EF1252D9400812538D12166E
:105A1300038014EEFAEFFB9012821259A112234075
:105A2300800574F1125A2D025E548E828F83A31265
:105A33005A391215F722F0EEFAEFFB22C082C08327
:105A4300121603025ACC74F7120A7EEAFEEBFF75B4
:105A530008009004F4E05402700EEE242FF582EF58
:105A63001252D950037508E89004F4E05460700DA5
:105A7300EE242F12570BA2E150037508E88E828F94
:105A830083A3A3A3A3E0C3947540037508E8EE249E
:105A93002D12570B701AEE242A12570B7012750829
:105AA300F51216F9A908EEFAEFFB1216C9025E54B5
:105AB300E50870ED1215E580F4C082C083740D8A89
:105AC300828B83F01221618000D083D082020D2A61
:105AD300C082C083E48A828B83F0A3F0EA242F126E
:105AE30052D640189004D7E0C0E09081B1E0FCD0DA
:105AF300E0C39C401879F11216C980CD9004D6E01A
:105B0300C0E09081B1E0FCD0E0C39C50E81257CBD9
