:020000040000FA
:060000000212680207DE97
:03002B00021217A7
:03003300020E3486
:0300430002108523
:03004B00020F5A47
:0300530002073071
:03005B00020F6928
:03006300020F7514
:03006B00020E1A68
:03007B00020E7CF6
:1000830002077A010101010503010F10FEFF0300BE
:100093000300030003000300030003000300030045
:1000A30005000A00140028004F009E000000C51937
:1000B300C519C519C51987188118C51976270000F0
:1000C30000009C28000000000C0000000C00010050
:1000D30000151B000000000000A51B00000000002D
:1000E3000000003200CC05FF0102005312000000A3
:1000F300C61264000202000001000501071E02058A
:100103001E020A03B80B803E0122220202060606E3
:1001130006060014141414140006F304353F0000FB
:1001230080BF1872313F2292D43EDD9B2A3F0400E8
:100133000040D85BDE3E3031323334353637383920
:1001430041424344454600286E756C6C20706F69CC
:100153006E746572290030313233343536373839AD
:10016300616263646566003F3F3F00F9021550B763
:1001730043BA510000204100E7DB2E0000A04010ED
:10018300000000080000000A000000121287604609
:100193001212B4603DE9687008F618F618F618F6FE
:1001A30022748067F71201C2090909748067F72274
:1001B3001212B4601D1212877005191919801A12D0
:1001C3001107701F12111CC37003E6673319191945
:1001D30040071818182208080874FFF618F618F6CE
:1001E30018F62212111C60171212DB702192F01202
:1001F30012E57019501720F014080808090909E7D7
:10020300F61819E7F61819E7F61819E7F622121285
:10021300E560E6E869701F0808E62480F608E4361E
:10022300F618547FB47F0CE654806007F6E418F6A2
:1002330018F622181822E9C6CC08C6CD08C6CE087F
:10024300C6CFC0E0E8C0E0EAC0E0EBC0E009E9F8EF
:1002530009E7FA09E7FBE6F918E6F8C3EC98ED9924
:10026300EE9AEBC2E7F5F0EFC2E795F0500E600CA3
:10027300EBCFFBEACEFAE9CDF9E8CCF8EAA2E7D274
:10028300E7FAEB33FB13F5F0EEA2E7D2E7FEEF3329
:10029300FFC5F013A2E730E601B313C5F0C3C0E016
:1002A300C0F07F00C39BFB605B9418600C401AD0C6
:1002B300E023F9D0E0F80203918AF0E9486003D221
:1002C300F0E4AFF0FAF9F8803BEB30E40D89F0EAA3
:1002D3006003D2F0E4AFF0F9CAF8EB30E30D88F035
:1002E300EF6002D2F0AFF0E4CAC9F8EB5407601430
:1002F300FBC3EA13FAE913F9E813F8EF135002D238
:10030300E0FFDBEDD0E0C0E030E739C3E49FFFF569
:10031300F0EC98FC42F0ED99FD42F0EE9AFE42F0CB
:10032300D0E0F9D0E0F8E5F0607AE923F9EE20E7D0
:1003330042D8028067C3EF33FFEC33FCED33FDEEAD
:1003430033FE80EAEC28FCED39FDEE3AFED0E023E3
:10035300F9D0E0F84002801BC3EE13FEED13FDEC71
:1003630013FCEF135002D2E0FF08B800067F7F743E
:10037300FF802EEF3350178CF020F00260100CBC7E
:10038300000C0DBD00080EBE000408E860DFE93371
:10039300E813FFEE2313FE4F4D4C8008E95480FF12
:1003A300E4FEFDFCEE33EF33F47004FCFD7E80D0FD
:1003B300E0FBD0E0FAD0E0F8D0E0CFC618CEC61804
:1003C300CDC618CCC6F9221212B47004181818221C
:1003D300121287700D74FFF61819F61819F618190A
:1003E300F622E7548066F61212E5700F1212DB70E4
:1003F300F014F608F608F608F680D11212DB700C3A
:10040300F608F608768008E6447F80EC12111F7028
:100413000C12110A60BFE65480F6E480BB12110A85
:10042300700519191980A5E869700C763F18768054
:1004330018F618F6E8F922E6CDC0E018ECC0E0E6BD
:1004430033CD33CDD313F6E719FCE7191933CC3386
:10045300C3947F400ECD9D502408E65480F6E418E3
:10046300F6800FF4043D14501408E6447FF6187622
:1004730080E418F618F6D0E0FCD0E0FD22CCD313CC
:10048300CCFD18E4C6CBC0E018E4C6CAC0E0080837
:10049300ED08C633E613F618E433C675F003C3CA92
:1004A30097CA09CB97CB199C40047D08802EBD00C9
:1004B3000302057316B6FF050606081618C3CA33EA
:1004C300CACB33CB33CA27CA09CB37CB193CC37D3D
:1004D30008803E187D0820E75CC633C6CA33CACB02
:1004E30033CB33DDF1D5F0EB30E77BCA97CA09CBC9
:1004F300974ACB199C406F4B7025E620E02180661C
:10050300187D08C3CA97CA09CB97CB199CD3C633A6
:10051300C6CA33CACB33CB3350C9DDE7D5F0E1D3F9
:10052300E4C636C608C636C608C636C608C636C6C4
:100533001818188031C3CA97CA09CB97CB199CB333
:100543004097C633C6CA33CACB33CB33DD34D5F079
:100553002EC6A2E0C640C8CA27CA09CB37194A70BB
:10056300BECB3CB480B90808E63308E633601F18F5
:100573001818D0E0FAD0E0FBD0E0FCD0E0FD221860
:100583007D08CA27CA09CB37CB193CD3808013F621
:1005930018E4B67F11F618B6FF0EF618C60470D22B
:1005A3000808768080CAF618F618F680C50012127D
:1005B300B4604F1212876012E7548066F612110777
:1005C30070111212DB703B090909F4F618F618F6DC
:1005D30018F62212111C70151212E508080860EAB9
:1005E300E6447FF618768018E4F618F6221212E530
:1005F30060161212DB7012E4F608F608F608E654E9
:1006030080F609090918181822EAC0E0EBC0E0ECEB
:10061300C0E0EDC0E0E687F0A4FBACF008E687F0AD
:10062300A42CFCE435F0FA1809E687F0A42C4B60FF
:10063300027401CA35F0FCE433FB09E687F0D2F714
:10064300A42CCB35F0FC1908E687F0A42BCC35F0AD
:10065300FBE433FD0819E687F0D2E7A42C4ACB3537
:10066300F0CD3400FC09E687F0D2E7A42DCC35F0B9
:10067300FDE433FA0918E687F0D2F7A42CCD35F060
:10068300CA3400FC08E687F0D2E7D2F7A42ACC35B7
:10069300F07A7E20E70B0ACB33CBCD33CDCC33CCF2
:1006A30033CB3350147004ED30E00ED2F1E4CD3D82
:1006B300CDCC3CCC3B5005DA05C2F1EB547FC633BD
:1006C30008E63392F0FBE73309E733C39A502D2B47
:1006D30070190C0D4C4D70151806E608C333700DD8
:1006E30020F10AA2F013F6E418800B4024E4F6305C
:1006F300F002768018F618F618F68024D33B1450CF
:100703001074FFA2F013F6187680E418F618F6803A
:100713000FA2F013F618E63303F618ECF618EDF60D
:10072300D0E0FDD0E0FCD0E0FBD0E0FA22C0E074E2
:10073300F2120AF1E5A7FAE5A1FBEA5B541060089F
:100743001221D553A1EF802AEAA2E0C0D0EBA2E0A8
:1007530092F0121159158182F05017906198E0FAC6
:100763009015DDE0C39AA2D265D0335002EAF0536C
:10077300A1FE7F01020BA8C0E074F2120AF190619E
:10078300A4E0FA759B00E5915A540860087591F747
:10079300122217802AE5915A541060087591EF12BE
:1007A300221D801BEAA2E0C0D0E591A2E092F012E4
:1007B3001159158182F05007E0C2E0F012233D90F9
:1007C30061A3E0FAE5E95A5404600E12231375E9B4
:1007D300FB906193E0A2E640F28097C0E074F212CE
:1007E3000AF19061A5E0FAE5BF5A5404600653BFCD
:1007F300FB122355020775C3E498F8E499F912082C
:100803003B8026C3E49AFAE49BFBE920E7E912085C
:100813003BE498F8E499F922C3E498F8E499F912CF
:10082300083BE498F8E499F9C3E49AFAE49BFB22C1
:10083300EB20E7CFE920E7E0B90010BB0008E88A26
:10084300F084F8AAF022E4FBC8FA22EB70227B10B2
:10085300C833C8C933C9335007C39AC3DBF2800610
:100863009A50012ADBEAC833F4C8C933F4C9FA221F
:1008730075F008E4C833C8C933C933C99AC99B5052
:1008830004C92AC93BD5F0ECFBC833F4C8E4C9FA60
:10089300221208D420F01430E72B74FFFCFBFA7407
:1008A3007F8022E4FCFBFA7480801AB48008BC00C9
:1008B300F2BB00EF800F50EBF9E4C39AFAE49BFB21
:1008C300E49CFCE499C6CC18C6CB18C6CA18C6F972
:1008D30022E4C9C608CAC608CBC6D3330308CCC6AC
:1008E3003392F0C3947F402E94184019C9B907047A
:1008F300CACBCC225025C309CA33CACB33CBCC33A2
:10090300CC33D9F422F4600DC9CCC313CB13CBCAB7
:1009130013CAD9F6CC22E4FCFBFA2214FCFBFA221C
:10092300080808EAC0E0EBC0E086F0E7A4FA18097B
:1009330086F0E7A42AFA180986F0E7A42AFA180928
:1009430086F0E7A42AFA1986F0E7A4FBE5F02AFA71
:10095300190886F0E7A42BFBE5F03AFA190886F0AC
:10096300E7A42BFBE5F03AFA18180986F0E7A4C5CB
:10097300F02BFBE43AFA1908E7C5F0C6A426F6E51E
:10098300F03BFBE43AFA1886F0E7A4F6E5F0082614
:10099300F6E43B08F6E43A08F6D0E0FBD0E0FA22AE
:1009A300080808E630E7111211311209BB080808DC
:1009B300C64480C618181822181818E9799EC60864
:1009C300CAC608CBC608CCC6C370207996CACBCC9E
:1009D3007019798ECBCC70137986CC700EF9802A7E
:1009E300CA33CACB33CBCC33CC331930E7F2CCCBBD
:1009F300CA3350147004EA30E00DE4CA3ACACB3B60
:100A0300CBCC3CCC500209C3E913C6CC182313C684
:100A1300CB18C6CA18C6F922E4CFC0E0E4CEC0E0C2
:100A2300E4CDC0E0E4CCC0E075F020C3E633F608C3
:100A3300E633F608E633F608E633F6181818EC330F
:100A4300FCED33FDEE33FEEF33FFC3EC9709ED9777
:100A530009EE9709EF97191919400FFFEC97FC0955
:100A6300ED97FD09EE97FE191906D5F0BEECF709CF
:100A7300EDF709EEF709EFF7191919D0E0FCD0E00B
:100A8300FDD0E0FED0E0FF222510C582C0E0E511D5
:100A930034FFC583C0E0E510C3958224F8F8E4C5AC
:100AA300A8858311858210C5A8E8CEF0A3E520F0C0
:100AB300A37808E608F0A3DEFAEFF0A3E58124FAB1
:100AC300F8E608F0A3E608F0A3E608F0A30808E6B2
:100AD30008F0A3E608F0A315811581D0E0FED0E06D
:100AE300F8158115811581E8C0E0EEC0E022C0D081
:100AF3002510C582C0E0E51134FFC583C0E0E510D1
:100B0300C3958224F310AF08858311858210800872
:100B1300858311858210D2AFC8F0A3E9F0A3EAF070
:100B2300A3EBF0A37908E709F0A3D8FAECF0A3ED5F
:100B3300F0A3EEF0A3EFF0A3D0E0F0A3D0E0F0A396
:100B4300D0E0F0A3E520F0A3E5F0F0A3221212D049
:100B5300B90003020B92E4900400784779178002EE
:100B6300F0A3D8FCD9FA901A46AA82AB83900086E8
:100B7300780979028015E493A3AC82AD838A828BD2
:100B830083F0A3AA82AB838C828D83D8E9D9E775DE
:100B9300829C7583C27403120D2575828575832625
:100BA3007400120D25851183851082E0C0E0A3E057
:100BB300F9A3E0FAA3E0FBA37808E0F608A3DFFAC1
:100BC300E0FCA3E0FDA3E0FEA3E0FFA3E0C0E0A3FD
:100BD300E0C0E0A3E0F5D0A3E0F520A3E0A3F5F0A7
:100BE300E4C5A8858311858210C5A8D082D083D09F
:100BF300E0F8D0E0321212B4601C121287601712B0
:100C030012E570071212DB7001D322C0D01212DB7F
:100C13007006D0D0B322C32233D0D0501430E0F6C4
:100C2300C3E7960809E7960809E7960809E796B324
:100C33002220E0D5E6970809E6970809E697080910
:100C4300E697B3221212B4601B12128760161212B7
:100C5300E570071212DB600CB322C0D01212DB70F6
:100C630005D0D022C32233D0D0501330E0EBC3E7FA
:100C7300960809E7960809E7960809E7962220E00F
:100C8300E4E6970809E6970809E6970809E6972234
:100C9300D083D082ECC0E0EDC0E0E493A3FCE49306
:100CA300A3FDED4C600D120D67EC24FFFCED34FF4A
:100CB300FD80EFE493A3FCE493A3FDED4C600D12E0
:100CC3000F05EC24FFFCED34FFFD80EFD0E0FDD0F9
:100CD300E0FCE493A3C0E0E493C0E022D083D0829D
:100CE300E9C0E0E493A3C386F0C5F095F0F908E406
:100CF30093A386F0C5F095F0700BE493A3C39940DA
:100D030005E9048002A3E475F002A42582F582E5D7
:100D1300F03583F583D0E0F9E493A3C0E0E493C016
:100D2300E022F5F0E59F5407C0E0E59F54F845F055
:100D3300F59FE473859FF053F0F8D0E045F0F59FFD
:100D430022D083D082E59F5407C0E0E493C0E074CF
:100D53000193C0E07402935407F5F0E59F54F845FE
:100D6300F0F59F22C0E0C3E49396087401939618AC
:100D7300400FE4936670080874019366187000705E
:100D830019A3A3C3E49396087401939618A3A340ED
:100D93000DD0E0D0E0D0E0020CCFA3A3A3A3A3A384
:100DA300D0E022851183851082E0A3FEE0A3F52025
:100DB3007808E0A3F608DFFAE0A3FFE0A3C0E0E0D1
:100DC300A3C0E0E0A3C0E0E0A3C0E0E0A3C0E0E490
:100DD300C5A8858210858311C5A8D083D082020D52
:100DE30037D083D082C5F0E493A3C5F0C395F0F563
:100DF300F0E493A3C395F04005E5F0048001E475A6
:100E0300F002A42582F582E5F03583F583E493A30C
:100E1300C0E0E493C0E022C0E074F2120AF1E58975
:100E2300A2E150031220B5758900C2C57F01020BF0
:100E3300A8C0E074F2120AF1E58BA2E0500312207D
:100E4300B5758B00C2E880E47404800474028000EA
:100E5300CCC0E0EDC0E0E510C39CCCAD1150011D4A
:100E630010AF068C108D1180068C108D11D2AF122D
:100E73000FA3D0E0FDD0E0FC22C0E074F2120AF12F
:100E8300E58AA2E2501C7401901234F07A027B00CE
:100E9300901205E0F91226017A647B00121DB55306
:100EA3008AFBC2EB7F01020BA874028000CCC0E076
:100EB300EDC0E0E510C39CCCAD1150011D10AF0691
:100EC3008C108D1180068C108D11D2AF120F81D032
:100ED300E0FDD0E0FC221212B460251212876020DC
:100EE3001212E570030212DB080808E76670101897
:100EF30019E766700A1819E76670041819E766227D
:100F0300F422C0E0C0F088F0E4936670080874012E
:100F13009366187000A8F0A3A3700BD0F0D0E0D0B4
:100F2300E0D0E0020CCFA3A3D0F0D0E022D083D056
:100F330082CCC0E0E493A36006120FE31470FAE4DA
:100F430093A3600612109C1470FAD0E0FCE493A300
:100F5300C0E0E493C0E022C0E074F2120AF112216F
:100F6300157F01020BA8C0E074F2120AF112211BD3
:100F730080EFC0E074F2120AF112212180E3CAC0AB
:100F8300E0E493A3C582CCC582C583CDC583F0A31A
:100F9300C582CCC582C583CDC583DAE5D0E0CA223C
:100FA300CAC0E0E0A3C582CCC582C583CDC583F0AA
:100FB300A3C582CCC582C583CDC583DAE6D0E0CA9A
:100FC300227009080808226016181818C6C333C609
:100FD30008C633C608C633C608C633C6D5E0EA22F8
:100FE300C0E0E493A3D39C5010E493A3C39C400AB2
:100FF300D0E0D0E0D0E0020F4DA3A3A3D0E0227451
:1010030004800A74038006740280027401C0E0F451
:101013000412101DD0E01212C3222510F58210AF66
:1010230008F510400215118008F51040021511D281
:10103300AF85118322C0D0251010AF08F5105002E0
:1010430005118008F51050020511D2AFD0D022BB94
:101053000102E722C082C08389828A83BB0003E046
:101063008002E493D083D082226016080808C6C3A6
:1010730013C618C613C618C613C618C613C6D5E0BA
:10108300EA22C0E074F2120AF1C2C0E5D1A2E45030
:101093000312214B7F01020BA8C0E0E493A36C7001
:1010A30009D0E0D0E0D0E0020F4DA3A3D0E0222589
:1010B3001010AF08F510400215118008F51040021A
:1010C3001511D2AF22C3E09608A3E09608A3E096D9
:1010D30008A3E096A2D265D03322C3E7960809E7B6
:1010E300960809E7960809E796A2D265D03322E06D
:1010F30066701008A3E066700A08A3E0667004082F
:10110300A3E06622181818E6084608700AE608C322
:10111300337005E633F4220822191919E709470940
:10112300700AE709C3337005E733F422092218185C
:1011330018E4C396F608E496F608E496F608E496EF
:10114300F622C3E096F008A3E096F008A3E096F039
:1011530008A3E096F022C0E0E8C0E0E58124FCF8B3
:10116300E6A2E7D0E0F8D0E022E627F60809E63762
:10117300F60809E637F60809E637F622E026F60808
:10118300A3E036F608A3E036F608A3E036F622E03D
:1011930026F008A3E036F008A3E036F008A3E03613
:1011A300F022E046F008A3E046F008A3E046F0088A
:1011B300A3E046F022700422600D18C6C333C608AC
:1011C300C633C6D5E0F41822E657F60809E657F603
:1011D3000809E657F60809E657F622E056F608A38B
:1011E300E056F608A3E056F608A3E056F622E647D3
:1011F300F60809E647F60809E647F60809E647F65A
:1012030022E056F008A3E056F008A3E056F008A346
:10121300E056F022C0E074F2120AF1C2C71222595A
:101223007F01020BA8C3E7960809E7960809E7962A
:101233000809E79622C6F4C608C6F4C608C6F4C66B
:1012430008C6F4C622600D08C6A2E713C618C61363
:10125300C6D5E0F322C3E09608A3E09608A3E09680
:1012630008A3E0962275D0007581407510007511B2
:101273000400020B50600C08C6C313C618C613C67D
:10128300D5E0F422E7094709C3134709336002E7AE
:1012930033F422E6F008A3E6F008A3E6F008A3E699
:1012A300F022E0F608A3E0F608A3E0F608A3E0F6D0
:1012B30022E6084608C3134608336002E633F422E5
:1012C300CAC0E0E6F0A308DAFAD0E0FA2274F855CF
:1012D300C74401F5C7790122E7C3331947194719F1
:1012E3004722E6C333184618461846222510F582CE
:1012F300E43511F58322120D44188A01120D443E80
:101303008A01120D44508A01120D445A8A01120DAA
:1013130044048B01120D44708B01120D44378C0170
:10132300120D443F8C01120D442F8D01120D44A860
:101333008D01120D44FC8D01120D44718E01120DAD
:10134300440F9001120D44239001120D4485900126
:10135300120D440A9101120D44609101120D447A59
:101363009201120D446C9301120D44D99301120D95
:1013730044559401120D44B79401120D44EF9401A6
:10138300120D44CA9501120D44D29601120D442F39
:101393009701120D44789701120D44A09701120D85
:1013A30044299801120D44BF9801120D4425990157
:1013B300120D444A9901120D44C39901120D445769
:1013C3009A01120D44EB9A01120D440F9B01120D69
:1013D30044339C01120D44469C01120D44B79C01F9
:1013E300120D44CC9C01120D444F9D01120D448EED
:1013F3009D01120D44C99D01120D44EA9E01120D77
:1014030044A1A001120D44ABA001120D44B5A001EB
:10141300120D44BFA001120D44C9A001120D44E3F3
:10142300A001120D44EDA001120D44F7A001120D0D
:101433004401A101120D4422A101120D4430A10166
:10144300120D4454A101120D4478A101120D44D18F
:10145300A101120D4416A201120D4434A201120D72
:1014630044ABA201120D44F5A201120D442BA301BA
:10147300120D44AAA301120D440BA401120D443D05
:10148300A501120D440AA601120D44F2A601120D84
:10149300448DA901120D44FEAA01120D44B5AC01FD
:1014A300120D44FBAC01120D44FDAD01120D444677
:1014B300AE01120D44FCAE01120D449BAF01120D9F
:1014C30044C3AF01120D4496B001120D44B6B201EC
:1014D300120D44E8B201120D444DB301120D4448FC
:1014E300B401120D448BB401120D44D7B401120D93
:1014F3004436B501120D4484B601120D44D0B60131
:10150300120D44DAB701120D4484BA01120D44A836
:10151300BA01120D4473BC01120D44CABC01120D71
:1015230044C6BD01120D4421BE01120D445BBE0130
:10153300120D4486BE01120D4464BF01120D44A86E
:10154300BF01120D44E4BF01120D4475C001120D19
:101553004478C001120D44E3C001120D44CE2A00A9
:10156300120D44202B00120D44072D00120D44A42C
:101573002D00120D44D82D00120D44002F00120D22
:1015830044A83100120D44093200120D44AC380056
:10159300120D44663B00120D44523C00120D441ED2
:1015A3003D00120D44703E00120D44753F00120DB4
:1015B30044944200120D44674400120D44C7440092
:1015C300120D44A54500120D44D04500120D447080
:1015D3004600120D445D4700120D443F4800120DB2
:1015E300440F4900120D443C4900120D445E49006A
:1015F300120D44BF4B00120D44704C00120D44C732
:101603004C00120D44314D00120D44FD4D00120DDE
:1016130044324E00120D44864E00120D44B64E0065
:10162300120D44F44E00120D44424F00120D444774
:101633004F00120D449E4F00120D44C64F00120D71
:1016430044C65000120D44475100120D4438530054
:10165300120D44F55300120D44785500120D441C2D
:101663005700120D44BD5700120D44A15800120D2E
:10167300442A5900120D44715900120D44DB5A00DB
:10168300120D44EF5A00120D44FC5A00120D442669
:101693005B00120D44325B00120D44505B00120DCF
:1016A300445A5D00120D44155E00120D44595E004C
:1016B300120D44FF5E00120D44EA5F00120D449ABE
:1016C3006000120D44D66100120D44BF6200120D7A
:1016D300446A6300120D44036400120D441A64004B
:1016E300120D443E6400120D44486400120D44542C
:1016F3006400120D44726400120D44B66400120DAE
:1017030044246500120D448F6500120D44E8650002
:10171300120D44506600120D44626700120D44140A
:101723006800120D44FB6800120D44596900120D44
:1017330044E16900120D44D06A00120D44FF6A00AF
:10174300120D44666B00120D44406C00120D44668A
:101753006C00120D44106D00120D443C6D00120D0F
:1017630044C36D00120D44386E00120D44726E00B6
:10177300120D449E6E00120D44D36E00120D445C94
:101783006F00120D44856F00120D44F96F00120DA6
:10179300446E7000120D44F0E503120D443BE60362
:1017A300120D44C6C101120D44F4C101120D44B21D
:1017B300C201120D4498C301120D449FC401120DBE
:1017C300442AC601120D449FC601120D444EC7019F
:1017D300120D444BC801120D44B6C801120D440941
:1017E300C901120D445DC901120D4467C901120DEF
:1017F30044ADC901120D4410CA01120D44A8CA0117
:10180300120D441DCB01120D4409CC01120D448469
:10181300CC01120D449ECC01120D44CDCC01120D0E
:1018230044FACC01120D4491CD01120D44A1CD0116
:10183300120D44F4CD01120D4400CE01120D440CDF
:10184300CE01120D4415CE01120D4460CE01120DCE
:1018530044BBCE01120D440CCF01120D4427CF011E
:10186300120D445DCF01120D447ECF01120D448849
:10187300CF01120D449DD001120D44BBD001120DB6
:10188300442DD101120D4440D101120D444ED1011A
:10189300120D44EFD101120D44C3D201120D44E4E1
:1018A300D301120D4460D401120D446AD401120D08
:1018B30044DDD401120D44F4D401120D4436D50194
:1018C300120D4474D501120D44A3D501120D44DA4F
:1018D300D501120D44F8D501120D441CD601120D89
:1018E300445DD601120D444CD701120D4492D70129
:1018F300120D44BDD701120D4430D801120D4457C7
:10190300D801120D449CD801120D44AAD801120D1E
:101913004403D901120D4440D901120D4487D90162
:10192300120D44B8D901120D44DBD901120D44E65E
:10193300D901120D4404DA01120D44C0DA01120D6B
:1019430044CADA01120D440FDB01120D4453DB01CB
:10195300120D4467DB01120D4452DC01120D446584
:10196300DC01120D447ADC01120D4422DD01120D5B
:10197300446EDD01120D4424DE01120D442FDE01FD
:10198300120D447DDF01120D44A9DF01120D44EA5B
:10199300DF01120D4404E001120D4475E001120D44
:1019A3004401E101120D4438E101120D449BE301AE
:1019B300120D4423E401120D44A3E401120D44E685
:1019C300E601120D44F6E601120D44F9E601120D8B
:1019D3004405E701120D4419E701120D4438E701EC
:1019E300120D446BE701120D4430E801120D4497C8
:1019F300E801120D44FBE801120D4485E901120DC3
:101A03004436EA01120D4464EA01120D44FAEA0174
:101A1300120D4429EB01120D444BEB01120D4472DC
:101A2300EB01120D44D7EB01120D448AED01120DA7
:101A3300448DED01120D44F7ED01120D44EAEE0160
:101A4300120D44D1EF01120D445CF001120D449FBD
:101A5300F101120D4462F201120D449BF201120DC9
:101A630044CCF201120D44D5F201120D44B9F30135
:101A7300120D4449F401120D44E7F401120D44A779
:101A8300F501120D4420F601120D444FF601120D1B
:101A9300448CF601120D44E9F102120D44F7F102F0
:101AA300120D4473F202120D44A9F202120D44F412
:101AB300F202120D441EF502120D4418F702120D24
:101AC3004405FA02120D4433FA02120D4455FA0288
:101AD300120D44C2FA02120D44FEFA02120D442CF6
:101AE300FB02120D4469FB02120D44ACD603120D26
:101AF30044C5D603120D4410D703120D445BD7031C
:101B0300120D44FED703120D4488D303120D44CEA5
:101B1300D403120D4494AE03120D4413AF03120DFC
:101B2300441EAF03120D4445AF03120D4459AF03D6
:101B3300120D44CEAF03120D44FEAF03120D44ED5C
:101B4300B003120D449AB103120D44F8B103120D00
:101B53004448B203120D447DB203120D44D5B203BF
:101B6300120D4410B303120D4420CE03120D44375B
:101B7300CE03120D44D2CE03120D4481CF03120DB6
:101B830044AECF03120D4426D503120D44B2D50340
:101B9300120D44BCD503120D44E1D503120D44903C
:101BA300D603120D44388803120D44D48803120D52
:101BB30044058903120D44478903120D44718903B7
:101BC300120D44918903120D44DD8903120D442C37
:101BD3008A03120D447E8B03120D449F8B03120D57
:101BE30044C08B03120D44ED8401120D44CA8C03CF
:101BF300120D441D8D03120D44878E03120D4423D1
:101C03008F03120D444C9003120D44009E03120DDA
:101C130044469E03120D44EF9E03120D44159F0389
:101C2300120D44DE9F03120D44E79F03120D443D42
:101C3300A003120D4468A003120D44CDA003120D9E
:101C4300443EA103120D447EA103120D44E3A103FC
:101C5300120D440CA203120D449AA203120D44E880
:101C63008801120D442CA303120D443CA303120D4F
:101C7300444CA303120D446BA303120D441AA40393
:101C8300120D444DA403120D44A0E103120D4403AD
:101C9300D003120D4462D003120D448ED003120DF3
:101CA3004491D103120D4461D002120D4445D10277
:101CB300120D4480D102120D4438D302120D447C1C
:101CC300D302120D4417D502120D445ED502120D34
:101CD300443AD602120D44C4D602120D4461D7020F
:101CE300120D44B9D702120D44FCD702120D44ACB5
:101CF300D902120D4463DB02120D4499DD02120D69
:101D030044A3DD02120D4400DE02120D4455DE022F
:101D1300120D4493E102120D44D9FF02120D44EF58
:101D2300FF02120D4445E603120D4403BD03120DD9
:101D3300441BBD03120D44B7BD03120D44F8BD038C
:101D4300120D4415BE03120D443BBE03120D447124
:101D5300BE03120D44A8BE03120D44D2BF03120DDD
:101D63004477DF03120D44E4DF03120D44FFDF0366
:101D7300120D4444E003120D446AE003120D44843F
:101D8300E003120D44CDF601120D446EF701120D5E
:101D93004464F801120D44A1F801120D445BF901EA
:101DA300120D44EAF901120D4462FB01120D44DBEA
:101DB300FB01120D4452FC01120D4470FC01120D83
:101DC300448AFC01120D44FAFC01120D44A8700070
:101DD300120D44F67000120D44C37100120D444CF1
:101DE3007200120D44967200120D44E47200120D3B
:101DF30044417300120D44557300120D4476730071
:101E0300120D447B7400120D44F27400120D440D44
:101E13007500120D444E7500120D448B7500120DA2
:101E230044E47500120D44FA7500120D447D7600EA
:101E3300120D44097800120D442A7800120D445EF5
:101E43007800120D448E7800120D44937800120D21
:101E530044EB7800120D44857900120D44A77900F4
:101E6300120D44CA7900120D44CD7900120D443C81
:101E73007A00120D445E7A00120D447B7A00120D33
:101E8300447E7A00120D4495E503120D44ADE5033B
:101E9300120D44689003120D44B99003120D447C53
:101EA3009203120D444C9403120D44969403120DA5
:101EB30044819503120D44079703120D442597039C
:101EC300120D44899703120D441E9803120D4466A4
:101ED300A302120D4490A302120D4408A402120D92
:101EE3004460A402120D44E6A402120D4449A50263
:101EF300120D448BA502120D4403A602120D449643
:101F0300A602120D440CA702120D444CA702120D97
:101F13004467AB02120D44F7AC02120D441DAD022F
:101F2300120D4417AE02120D441AAE02120D44FEF6
:101F3300AE02120D4436B002120D44D6B002120D99
:101F43004442B302120D44DFB302120D441AB50228
:101F5300120D4411B802120D4421B802120D445A55
:101F6300B902120D44C5B902120D44E8BA02120DAA
:101F73004437BC02120D44E6BC02120D4480BD027C
:101F8300120D443ABE02120D44AABE02120D44C2FF
:101F9300BE02120D4453BF02120D449CBF02120D28
:101FA3004471C002120D449DC002120D4415C102BA
:101FB300120D4461C102120D44D6C102120D44A197
:101FC300C402120D4420C502120D4489C502120D2C
:101FD300443BC702120D44DCC702120D446EC80213
:101FE300120D44CDC802120D4436C902120D44939A
:101FF300CA02120D4424CC02120D44A2CD02120DCA
:102003004445CE02120D4410CF02120D4426E703BD
:10201300120D4429E703120D4432C503120D449AED
:10202300C503120D4447C603120D44ADC603120D7A
:10203300441EC703120D4452C303120D44ABC30322
:10204300120D44ECDB03120D4431DC03120D44E5A5
:10205300DC03120D44CBD103120D44D9D103120D6D
:10206300442EE703120D44A1E203120D44B1E2032F
:10207300120D44CFE203120D4437E303120D441F44
:10208300DD03120D4446DD03120D44CFDD03120DB3
:102093004436DE03120D44DD9D03120D449EE0031E
:1020A300120D44BCE003120D441FE103120D442A38
:1020B300E103120D446FE103120D444FDE03120DD1
:1020C3004460DE03120D44C4DE03120D44DEDE035E
:1020D300120D44F0DE03120D4405DF03120D4431EB
:1020E300DF03120D4440DF03120D44F7A903120D61
:1020F3004405AA03120D4483AA03120D44A9AB039A
:10210300120D442FAE03120D4417D803120D444F82
:10211300D803120D4473D803120D44D1D803120D02
:102123004433D903120D44887A00120D44077B000F
:10213300120D44BA7B00120D442B7C00120D443D5A
:102143007D00120D44B97E00120D44197F00120D5B
:1021530044677F00120D44707F00120D44867F0098
:10216300120D44987F00120D44AA7F00120D44B350
:102173007F00120D447EA403120D44D1A403120D5B
:102183004451A703120D4489A703120D44AEA703BC
:10219300120D44C7A703120D44E0A703120D441BFD
:1021A300A903120D44B8A903120D4416CC03120D52
:1021B3004459CC03120D446ACC03120D4498CC034A
:1021C300120D44C8CC03120D4403CD03120D447306
:1021D300CD03120D44A6CD03120D44F0BF03120D1F
:1021E300441BC003120D4462C003120D4474C003A8
:1021F300120D4490C003120D44F8C003120D4401A4
:10220300C103120D4462C103120D4486C103120DB2
:102213004450C203120D445DC203120D446EC20347
:10222300120D44C8E403120D4415E503120D4430A6
:10223300B303120D4429B403120D443EB403120D2B
:102243004451B403120D446BB403120D448AB40316
:10225300120D4409B503120D44C9B503120D443BD5
:10226300B603120D4498B603120D44A8B603120D1B
:102273004441E303120D4466E303120D448FE30369
:10228300120D44B7E303120D44AAC703120D44C34E
:10229300C703120D44CFC703120D44E3C703120D46
:1022A3004407C803120D4413C803120D4422C80384
:1022B300120D4435C803120D446AC803120D44A419
:1022C300C803120D44D9C803120D4428C903120DC3
:1022D3004474C903120D448CC903120D4496C903F7
:1022E300120D44A7C903120D44EBC903120D449008
:1022F300E603120D44008003120D442C8003120DDB
:1023030044488003120D445B8003120D4471800323
:10231300120D44DC8003120D44168103120D448513
:102323008403120D44A28503120D44D38503120DB9
:1023330044338603120D44168703120D443E87036C
:10234300120D44538703120D44638703120D44A4F3
:102353008703120D44F98703120D440F8803120DEE
:102363004472D903120D448DD903120D44B7D90316
:10237300120D44D4D903120D44FCD903120D441E8B
:10238300DA03120D4437DA03120D4466DA03120D31
:102393004481DA03120D44D8E603120D44A7FB026D
:1023A300120D44AEFB02120D44BBFC02120D44EDB0
:1023B300FC02120D4413FD02120D4446FD02120DE0
:1023C3004458FD02120D4493FD02120D4403FE0214
:1023D300120D4440FE02120D448DFE02120D44BB49
:1023E300FE02120D44DBFE02120D44B5DA03120D98
:1023F30044EEDA03120D44E9DB03120D4406FF0138
:10240300120D445CFF01120D449AFF01120D44DBCF
:10241300FF01120D44529803120D44559803120DF7
:10242300448B9803120D44D19803120D44FE980374
:10243300120D44219903120D44FA9903120D441805
:102443009A03120D44989B03120D44B79C03120D7B
:1024530044B7B603120D44DFB603120D4428B70385
:10246300120D444AB703120D4479B703120D448584
:10247300B703120D44A1B703120D448EB803120D16
:1024830044C5B803120D4479B903120D4483B9034B
:10249300120D448DB903120D4497B903120D44A1D3
:1024A300B903120D440ABA03120D44F5BC03120D0D
:1024B3004434E503120D44F1C903120D44DCE30374
:1024C300120D44C57F00120D4439FF02120D4463FF
:1024D300FF02120D4452E403120D44D5E102120D22
:1024E30044A2E602120D44B28401120D448B84010E
:1024F300120D44708401120D44ED8301120D444FFB
:102503008301120D44CA8201120D44648201120D2B
:1025130044368201120D44C08801120D44718801B2
:10252300120D44248201120D4431A302120D4444BE
:102533008801120D44638701120D4413A302120D87
:102543004429A202120D448EA102120D4455A00289
:10255300120D440D9E02120D44279D02120D4409D3
:102563009D02120D44839C02120D44339C02120DF2
:1025730044E89B02120D44539B02120D44EA970256
:10258300120D44B69702120D446F9702120D444484
:102593009702120D44959602120D44489602120DAD
:1025A30044BA9402120D44B79402120D44CE93021E
:1025B300120D449A9302120D44DD8601120D445804
:1025C3008601120D449E8501120D44D59202120D0F
:1025D30044059102120D44B89002120D44899002F1
:1025E300120D444E8501120D44869002120D44795A
:1025F3009002120D44439002120D44359002120DC5
:1026030044FAA203120D442D8501120D44098F02D1
:10261300120D44898E02120D444F8E02120D44F3A3
:102623008D02120D44C98D02120D44EC8A02120D63
:1026330044D58A02120D44358A02120D446C890274
:10264300120D44B38602120D44DF8302120D44A01F
:102653008302120D443F8202120D44F28102120DD5
:10266300442D8102120D44008102120D44008002A8
:10267300120D44678002120D443A8002120D441871
:102683008C0300000080FBE4730001363601010077
:102693000102010001030100010401060605020015
:1026A30000070100340801000F090401010D0100B6
:1026B300FF0E08000017020000190100FF1A0100B5
:1026C300011B0100051C0100081D0200001F010081
:1026D3000120010001210200002301000F24020058
:1026E300002601000127010308280200FF2A010038
:1026F300072B0102402C0100002D0100012E0100D7
:10270300012F0100FF30010B1C310800003A0100CA
:1027130008010171010101010111010101310101EF
:102723000101018001100161013B00140063017389
:10273300017201620143010001130106013D0135EC
:102743000004011201000100010001000104010461
:1027530001330133013C0144013201360000010021
:10276300016501000135008101000105018201833A
:10277300010001030071003001600011007000319D
:102783000220035004800010006100000014006365
:102793000073007200620043000000130006000093
:1027A300000000040012000000000000000000040C
:1027B300000400370037003C024400000000000022
:1027C30000000065000000350081000000050000E6
:1027D3000083000000030471040204600411047008
:1027E300040204020401040204100461040004143A
:1027F30004630473047204620443040004130406B0
:10280300040004000404041204000400040004008F
:1028130004510464000004000400044404000400A0
:102823000400040004650400043504810464000505
:1028330004000483040004030271023001600211E6
:102843000270020102020202028002100261023AD5
:102853000041006302730272026202430200021328
:102863000238000002000204021202000200020009
:1028730002000204020402370037003C0244020053
:1028830002390000020002650200023502810200E3
:1028930002050282028302000201037103010301A4
:1028A30003010301030103220302030103100300D5
:1028B30003000300030003000300030003420300BB
:1028C3000324030603000300030403120325032365
:1028D3000325032303040304030003000300034449
:1028E3000300030003230300036503210035038171
:1028F3000300030503000300030003360001000681
:102903000000000F000000000000000000000000B5
:102913000003FFFF00000403FFFF0000FFFF0FF4AD
:10292300010005C4040320000100000B00000000A7
:102933000000000003010000B91F1300351F010050
:10294300B91F0200ED1E0300F31E0400F91E05006B
:10295300FF1E06000B1F1100291F14002F1F150057
:102963001D1FFFFF0000018D1506BD1508B7150BD0
:10297300C915100F1502931505AB150799150C7B97
:10298300150D8715FF000003000300040008001065
:10299300001F003E007B00F600EC01D703AF075D8C
:1029A3000FB91E713D0000E1181119E718ED180B5E
:1029B30019FF18F91817191D1923192F19F318DB03
:1029C30018D518D5C5C5B5A5A5958585757565654E
:1029D300555545453535252515059C36063A703D33
:1029E300D9404344AD47174B814EEA5100160F00BF
:1029F300000B150B020002220F3200000600010239
:102A0300030405060708090A0B0C0D0E0F5677770A
:102A130077777777777777777777777777C519D7F3
:102A230019DD19AB18E319A518B118371A551A5B34
:102A33001A3D1A491A431AE517DF171B18211815EF
:102A430018CD17303017181921301B1D1F303030A7
:102A530016181920231A1C1E3000034948424D182A
:102A6300172505020C0E020B040B0A0708000F00C2
:102A7300383C3E363B3B352B432C000119161816C8
:102A830016152303002B1AE919EF19FB19F519057C
:102A93001929194F1A35193B190005150D09100885
:102AA30004F117F717EB172718000000000000FDCB
:102AB300170F1800BE040A150004000E00030928AE
:102AC300010809000C040510080F08C082C083E93F
:102AD3009004CCF0E4900481F01223EB9004DFE443
:102AE300F0A3F09004CDF0A3F012175512252F1286
:102AF30014731223F1900441E4F0A3F09004EFE087
:102B03007002A3E060099004EF125D3312268A90ED
:102B13002ACCE493FA790212248702596A74F212D6
:102B23000A8BEAFEEBFF74805FF9E47001E9706DD4
:102B3300EE54207003022C72750A007C027D007A29
:102B430020122CFC7C0079047A007B001216118A77
:102B5300088B09807F0CEC75F003A4A9F02469F5B8
:102B630082E93429F583E49364FF602AE493FA85C8
:102B730008828B83E06A70DDAA08EC75F003A42455
:102B83006AF582E93429F583E493C0E0740193F58F
:102B930083D08212268AAA08AB09121C2F9004CC78
:102BA300E0F9121C3B8A088B09EA7001EB60047C94
:102BB3000080A3EEFA74806FFB022CEE740185088B
:102BC30082850983A3A3A3A3A3A3A3A3A3F0850C33
:102BD30008850D09E5087002E509606E7C0079043B
:102BE300AA08AB091216118A0C8B0D750A01E508A8
:102BF3002404126CF724FFF0A3E034FF124BBA70E5
:102C030002A3E070C9850882850983A3A3A3A3A3B4
:102C1300A3A3A3A3A3E0640170A28508828509830B
:102C2300A3A3A3A3A3A3E05404709174068508820D
:102C3300850983A3A3A3A3A3A3A3A3A3F07AB7851F
:102C43000882850983122D9980841215E17C00790D
:102C5300017A007B00121611EA7001EB7009E50A94
:102C630070057A20122CF174206EFAEF022BBBEE62
:102C7300541060071214A3741080EEEE54406007E2
:102C83001214F7744080E2EE548060071213D1747B
:102C93008080D674015FF9E47001E9601A9004F151
:102CA300E07002A3E060099004F1125D3312268AFA
:102CB300EEFA7401022BBA74025FF9E47001E96061
:102CC3000A12174FEEFA7402022BBA74045FF9E486
:102CD3007001E9601212606D125EDD7901123C48E9
:102CE300EEFA7404022BBA7A007B00022EDC7B001E
:102CF3009004CCE0F9121D49227B009004CCE0F94A
:102D0300121D432274F4120A8BEAFEEBFF750801CD
:102D13008E828F83A3A3A3A3A3A3E05440600512D1
:102D2300319C801590046CE0A2E1500A79001231C5
:102D33009C12147F800312168974FE6A700374FF59
:102D43006B602C125D2F12655E1216F5E98E828F71
:102D5300836006122D92E48005122D9274011248AD
:102D630038FAA3E0FB122481E9F509700580127596
:102D730009CDAA098E828F83122D99E96003750804
:102D830000A908EEFAEFFB1215EDA90902588AE033
:102D9300240D12388B22E0240C1269C2F912156F2C
:102DA3002274F6120A8BE9FEEAFF7A0F7B00121CEB
:102DB30029EA7001EB6019740C8A828B83F0EEA30D
:102DC300A3F0EF8A828B83A3F0125EF67900800270
:102DD3007910025D2A74F2120A8BEAFEEBFF8C086B
:102DE3008D09890A740E1212EFE0F50CA3E0F50DBC
:102DF300850C82F583E4F0A312634FE0F91216D732
:102E0300E96020122EED701B8E828F83A3A3A3A3F0
:102E1300A3A3A3A3A31268C6850C82850D83125EA8
:102E2300DD8003750A00EE241D122EE1120DE4016C
:102E330009D32E4A2E642E6D2E762ED32E972ED3A3
:102E43002EAA2EC32ECC2E780C12100AAC08AD0974
:102E5300EEFAEFFB12148B7402121038E9F50A80B4
:102E63006FEEFAEFFB1214918066EEFAEFFB121786
:102E73000D80E9EE241712318664027053E50A705F
:102E83000A126C2A7003A3E0697045EEFAEFFB1295
:102E930016C5803CEE241712318664027032EEFAB6
:102EA300EFFB1216AD80299004F3E07002A3E060FB
:102EB3001FEEFAEFFB9004F3125D3312268A8010A3
:102EC300EEFAEFFB1217198007EEFAEFFB12172544
:102ED300A90A800574031210387F06020DA6124B4F
:102EE300A5122EE822126361E0228E828F83A3A3B0
:102EF300A3A3A3A3A3A3A31262B564022274F4122F
:102F03000A8B74DE1210B28A088B098A828B83A320
:102F1300A3E0F9124C607001EF70030230068508DC
:102F230082850983A3E064F1603385088285098380
:102F3300A3E064CD6027850882850983A3E0641A32
:102F4300601B850882850983A3E064E9600F850817
:102F530082850983A3E064E160030230938E828F4C
:102F630083A3A3A3A3A3A3A3E05408F9E47001E9F3
:102F7300700302300E74058E828F83A3A3A3A3A3D1
:102F8300A3A3A3A3F09004F7E07002A3E060099069
:102F930004F7125D3312268A9004F9E07002A3E06D
:102FA300603290046CE0A2E1502A8E828F83124D2E
:102FB300D8A3A3A3A3A3A3A3125320888289831214
:102FC30063EA121779EA7001EB60099004F9125D64
:102FD3003312268A8E828F83A3A3A3A3A3A3A3A3BF
:102FE300A3E06402701074068E828F83A3A3A3A34D
:102FF300A3A3A3A3A3F0850882850983A3A3E0F970
:103003001215F31215E1742202588779001215ED97
:10301300E9607D90046CE0A2E150621269B770022E
:10302300A3E060598E828F831263EA74031212EF56
:103033001269C7850882850983A3E064E9701B12BE
:10304300318D12100E850882850983A3E0F50A7875
:103053000A12100E1248E2121038740C1212EF12F8
:103063004263123811125EDD7900740E1212EF12F0
:103073005320740C1212EF1263EA1214858E828F9E
:1030830083A3A3A3A3A3A3E04420F0A3E0022F8779
:10309300850882850983A3E0C0E074021212EFD091
:1030A300E01257B5126B60EE240B12318685108245
:1030B300851183AA82AB8370051213F58003121660
:1030C300D1850882850983A3E064F1605385088272
:1030D300850983A3E064CD6047850882850983A3BE
:1030E300E0641A603B850882850983A3E064E1609C
:1030F3002F850882850983A3E064F060237402129C
:1031030012EFE064B7601912318D12100E740312BE
:1031130012EFE0F50A780A12100E1248E212103884
:1031230090046CE0A2E14003022FD78E828F83A329
:10313300A3A3A3A3A3A3A3A3E06402702A8E828FF5
:1031430083A3A3A3A3A3A3E05404601B12319C1283
:1031530016F5E9700D125D2F74FFF0A3F0740502EC
:103163002FEB7403022FEB850882850983A3E064A8
:10317300E96003022FD7EEFAEFFB12172B022FD7CA
:10318300EE2411F582EF1250C1228E828F83E0F874
:103193001263D9750A01780A228E828F83122EE870
:1031A300FAA3E0FB2274F7120A8BEAFEEBFF750821
:1031B30000122EED7003750801126C2A7003A3E050
:1031C300697006E508D2E1F508E5088E828F83A3CE
:1031D300A36011E07006E508D2E58019E508D2E6A0
:1031E300F5088003E06010EE241D12532C64016087
:1031F30006E508C2E0F508E508A2E14004D2E7F5D8
:1032030008A90802509974F0120A8B74D21210B2F2
:1032130085108285118312655E74081212EF125FA6
:10322300E2740A1212EFE4F0A3F0740C1212EFAC82
:1032330082AD83851082851183123867851082855C
:10324300118312383012166585108285118312633B
:10325300EEF8A3E0F974191212EF125EDD740C128A
:1032630012EFAA82AB8312158174021212EFE9F0F6
:1032730074121212EFE0602674231212EFE0FD7451
:103283000D1212EFE0FC851082851183E0F81238ED
:1032930030790112253BE96003023805801390045D
:1032A30069E0600D74021212EFE0A2E140030238FC
:1032B30005851082851183E0242C124B94F8A3E03A
:1032C300F990047FE0687003A3E069703575080026
:1032D300780812100E780812100E74021212EF12F0
:1032E300387BF974021212EFE0242A123837740281
:1032F3001212EFE02412FAA3E03400FB1248FD128D
:103303001038740F1212EFE0FA90046FE06A600352
:1033130002380574121212EFE070030233F58510C0
:1033230082851183E0242A124B94FCA3E0FD12381A
:1033330054FAA3E0FB12177974061212EF12655EBA
:1033430074061212EFE07002A3E0700302380574F2
:103353000D1212EFE0F8851082851183123811A344
:10336300A3E028F8A3E03400F9740D28F582E439CA
:10337300F583E0FA74061212EF12382CE06A601E2D
:1033830074061212EFA3123CFCEAF09081B47808A1
:103393001212A574061212EF1238611212967904F2
:1033A300740D1212EFE0FA12381AE02AFCA3E0348B
:1033B300008C82F583A3AA82AB83121C1D8A088B1F
:1033C300098C0A8D0B74061212EF12382CA3780C99
:1033D3001212A5780C7908121228500302380590AE
:1033E30081CC780812117F74061212EF1238611221
:1033F300129690046CE0A2E150030234B79004816A
:10340300E064046008E06409600302380574021292
:1034130012EFE0A2E55047123875C0E074031212B0
:10342300EFD0E01238A3C0E074041212EFD0E01220
:10343300389AC0E074051212EFD0E0123882120EEF
:103443004B74071212EFAC82AD8374101212EFAA01
:1034530082AB831213FB7404121038023805A2E600
:10346300400302380574291212EF1263F5701C74BD
:10347300231212EFE064026003023805740C121287
:10348300EFAA82AB831216C502380574291212EF14
:1034930012380A600302380574231212EFE0640441
:1034A3006003023805740C1212EFAA82AB83121662
:1034B300B9023805741D1212EFE0602E8510828563
:1034C3001183E02402124B94FAA3E0F5838A82A3CA
:1034D300A3A3A3A3A3E014126085A3A3A3E0C0E066
:1034E300741D1212EFD0E0F0700974021212EFE0B3
:1034F300C2E7F0900481E064046005E06409705061
:1035030074151212EF126C377003A3E0696019741B
:10351300151212EF122EFA600F74111212EFE0540B
:103523000364016003023805740E1212EFE07003A6
:1035330002341A74291212EF1263F5700302347203
:1035430074291212EF12380A600302380502349B01
:103553007E0074021212EFE05461700302365CE0E5
:10356300A2E0506E123854FCA3E0FD740C1212EF6B
:10357300AA82AB831214FDE9704F121695E9FE740B
:10358300021212EFE0A2E75049851082851183E011
:103593002412123837740C1212EFAA82AB8312155D
:1035A30003E9601874151212EF126CDF1212EF1296
:1035B300459D1212EF7404F0A3E4801574021212F5
:1035C300EFE0C2E5F07E00800974021212EFE054CE
:1035D3009FF074021212EFE0A2E55044123875C056
:1035E300E074031212EFD0E01238A3C0E0740412A7
:1035F30012EFD0E012389AC0E074051212EFD0E057
:10360300123882120E4B74071212EFAC82AD837420
:10361300101212EFAA82AB831213FB740412103838
:1036230074021212EFE0A2E6400302373674081266
:1036330012EF858208858309780812100AEEF9745F
:10364300021212EF12386C1212EFAA82AB83121518
:10365300757402121038023734740E1212EFE064DC
:1036630001703874291212EF122EE46405702C7461
:10367300081212EF858208858309780812100A79E7
:103683000074021212EF12386C1212EFAA82AB838B
:103693001215757402121038023805741D1212EFD8
:1036A300E07018790074151212EF12532074171278
:1036B30012EF1263EA12149D0238051215E7E9604E
:1036C3000302380574151212EF126CDF1212EF1297
:1036D3005EDD8E08780812100E74251212EFAC828C
:1036E300AD8374161212EF1263EA74111212EFE033
:1036F300F912153F7401121038E96016740A121298
:10370300EF7420F0A3E41257AC123825122EE454C0
:103713003FF0790074171212EF125320741512122E
:10372300EF1253246008740A1212EF126189121601
:1037330095E9FE74081212EFE064FE7004A3E064DE
:10374300FF70027E0074021212EFE0A2E740030250
:103753003805EE700302380585108285118312380F
:103763004B1256C87001EB700302380512381A1257
:1037730056F612100674031212EF12384BFC7D003A
:10378300124824121038900469E07008741212125F
:10379300EFE0601A74231212EFE0FD740D1212EFC2
:1037A3001256DF6009AA0CAB0D121CA18054740ED3
:1037B3001212EFE0C0E0742B1212EFD0E0F0742C81
:1037C3001212EFE4F0A3F0742B1212EF8582088536
:1037D3008309780812100A740C1212EF120E4FEEBE
:1037E300F508780812100E74051212EF1238677478
:1037F3000D1212EF125D1D1216537405121038E9E3
:1038030070A3742E02554C126363E0640722E0FA3E
:10381300A3E0F5838A8222851082851183E0123822
:103823002522F8126363A3A3221260902212382682
:10383300125ACB2212383B22FAA3E03400FB8A82CD
:103843008B83E0FCA3E0FD2212384F2212555EE089
:1038530022851082851183E024121269C222125537
:103863005A78082212384FF922E0241212383B7496
:103873000E22851082851183E0242E1269C2221242
:1038830057B0242412388B2212388F22F8A3E03445
:1038930000F988828983221257B024301269C22228
:1038A3001257B0242F1269C22274F0120A8B74EAE1
:1038B3001210B28A0E8B0F124577750901850E829D
:1038C300850F83A3E0F50CE50E2402FCE50F1245FA
:1038D3008C74081212EF125FE2740A1212EF740270
:1038E300F074131212EFE4F0901A48E07010EE70C7
:1038F30001EF700AE50C70067509C3023A9990044A
:1039030081E0640860067509C2023A95850E8285D6
:103913000F83A3A3A3A3A3A3A3A3A3A3E0A2E15001
:103923000EA2E350057508048011750803800CA2EC
:10393300E350057508028003750801EE7001EF601E
:103943007E8E828F83A3A3A3A3E06404600D8E8283
:103953008F83A3A3A3A3E06403700C7404650860BE
:103963002C7403650860268E828F83A3A3A3A3E030
:103973006402600D8E828F83A3A3A3A3E06401700E
:103983002474026508600674016508700B126CDB11
:103993001212EF125EDD80278E828F83A3A3A3A36F
:1039A300E06402600D8E828F83A3A3A3A3E064016E
:1039B300700612651612268A123B587E007F007429
:1039C300081212EFE064FE7004A3E064FF703CE5AC
:1039D3000C60179004BEE06402700F901A4F126CD3
:1039E300DF1212EFE8F0A3E98020850E82850F83B2
:1039F300A3A3A3A3A3A3A3A3A3A3E05402F9121411
:103A0300A974081212EFEAF0A3EBF074081212EF94
:103A1300E064FE7004A3E064FF70057509C780725B
:103A2300E50CF50A780A12100E850E82850F83A322
:103A3300A3A3A3A3A3A3A3A3A3E0F9123B4D7409D8
:103A43001212EF1263EA1214197401121038E9709A
:103A530041A908123B4D74081212EF123C418A0A25
:103A63008B0BAE0AAF0BEE7001EF601E7402650C98
:103A7300700D8E828F83A3A3A3A3A3E0D2E3F0747C
:103A83000A1212EFE4F0F509800874081212EF121B
:103A93005FE2E50C700F851082851183AA82AB83E8
:103AA3001224698010FCA908851082851183AA82DB
:103AB300AB831216B3E9FAEE7001EF6053E50C60C5
:103AC300208E828F83A3A3A3A3A3E0D2E6F0740284
:103AD300650C700D8E828F83A3A3A3A3A3E0D2E50D
:103AE300F0850E82850F83A3A3A3A3A3A3A3A3A3FC
:103AF300A3E0A2E6500D8E828F83A3A3A3A3A3E02A
:103B0300D2E7F08E828F83A3A3A3A3A3A3E004F041
:103B1300E5097003EA602EFC7D007A017B10122315
:103B2300F7EE7001EF6003123B5874081212EFE0D6
:103B330064FE7004A3E064FF600B74081212EF12BA
:103B4300651A12268A741602554CE50E2402FCE50A
:103B53000F3400FD22E50E2402FAE50F3400FB12B8
:103B630013112274F7120A8B74F71210B2EAFEEBE8
:103B7300FF900481E06403600DE064016008E06489
:103B8300096003023C3C8E828F83A3E06003023C06
:103B9300187C007D007A027B001223F7EE2402FAE0
:103BA300EF125FBE1268C6900472125EDD79531283
:103BB30024637900123C48900481E0640960099011
:103BC300047F1263EA1217737401125D5174049037
:103BD3000481F074011212EFAA82AB83794A122492
:103BE3005D74011212EFAC82AD837A777B041224E9
:103BF3000F790074011212EFAC82AD839004751239
:103C03003C4190046CE0A2E35004D2F08002C2F085
:103C1300125D3780218E828F83A3AE82AF83FC7DBA
:103C2300007A037B101223F78E828F83E0F9123C14
:103C330048E4900481F01215C37409025096125A95
:103C4300CB121C5F2290047F125ACB12141322C092
:103C530082C083900441E07002A3E070419004812C
:103C6300E0120F30000301743C05833C06923CA133
:103C73003C900449E07002A3E0607B9004498070AB
:103C8300900445E07002A3E0606C9004458061906D
:103C93000447E07002A3E0605D9004478052900403
:103CA30041E07002A3E0600512426F702379009037
:103CB30004CD800909EA126753EB12530D124E81AA
:103CC3007001EB70EF9004CD1263EA1214018026A9
:103CD300900442123CFCA3A3A3E0640270051217F4
:103CE3004380139004F5E07002A3E060099004F5AB
:103CF300125D3312268A02596A126093227A0F7B6D
:103D030000121C298A0A8B0BAE0AAF0BEE22A312F8
:103D1300474AA3221253EF90047F2274F4120A8BB2
:103D230074EB1210B28A828B83A3A3A3A378081225
:103D330012A5780812123890048278081212047DB2
:103D43007F7E7F7C00750801750900750A00750B7D
:103D530000EC7808120FC490048278081211DE90E8
:103D630081B478081210F2602A7F009004CD80128B
:103D730088828983A3A3E06C70010F126752E91252
:103D8300530D124EEF7001E970E6EFC39D5004EF3F
:103D9300FDECFE0CECC3941B40AB8A828B83A3A384
:103DA300A3A3C082C0839081B478081212A5D083E4
:103DB300D08278081210F2605BEA12513EFAE9FBF6
:103DC3008A828B8378081212A590048278081212D3
:103DD300968A828B8378081212A5851082851183B7
:103DE300780812129674041212EF7401F09004888A
:103DF300E0C0E074051212EFD0E0F074071212EF86
:103E0300123F6D806590047F1263EA1214379004A9
:103E13007F12655E9004CD124EEF7001E960268833
:103E23008289831263EA90047FE06A7003A3E06BE4
:103E3300700A88828983A3A3E06E60C9126752E97E
:103E430012530D80D2EE900474F01215B1E9601A8A
:103E5300E4900481F090044BE07002A3E0600B79DE
:103E6300C490044B125D3312268A02588574F412EF
:103E73000A8B74EB1210B28A828B83A3A3A3A3A32E
:103E8300A3A3A3A3124EEFFAE9FB7C007508017507
:103E93000900750A00750B00EC7808120FC4900432
:103EA3008278081211DE9081B478081210F260371C
:103EB300901A4EE0C0E08C08EA2508F582EB123137
:103EC30089FDD0E0C39D501F750801750900750A6F
:103ED30000750B00EC7808120FC4780812123890A2
:103EE300048278081212040CECC3941B409E908148
:103EF300B478081212A575830475828278081210AB
:103F0300F2604190048278081212A585108285110F
:103F130083780812129674041212EF7401F0740776
:103F23001212EF7401F0900488E0C0E074051212DD
:103F3300EFD0E0F074071212EF123F6D7406900495
:103F430081F08023E4900481F0FCFD7A047B10125D
:103F530023F790044BE07002A3E0600B79C4900454
:103F63004B125D3312268A025885E412656C1224C3
:103F7300752274F2120A8B74ED1210B2EAFEEBFF93
:103F83008E828F83A3124253851082851183AC8264
:103F9300AD838E828F83A3A3A3A3A3A3A3124B8A70
:103FA3001263E31215D5851082851183E0706A8E42
:103FB300828F83A3A3A3A3A3A3A3A3E0C3940B40D0
:103FC30058850882850983A3A3A3A3A3A3A3A3E07E
:103FD30064027045900481E064026042E06406601C
:103FE3003D900441E07002A3E0600512426F605E01
:103FF300900481E064086005E06404701C7402129C
:1040030012EFE0F974071212EFAC82AD83850882D8
:104013008509831263E11215DB7413022ED9900410
:1040230041E07002A3E07026750A00780A12100EB0
:10403300780A12100E12424112530D124278FCA359
:10404300E0FD850882850983124901121038900426
:10405300CD1255729004CDE0F50AA3E0F50B80373D
:104063008E828F83E0F8A3124278687003A3E0691D
:1040730070198E828F83A3A3E0FAE508240DF582DD
:10408300E5091231896A700302410E8E0A8F0BEE25
:10409300126753EF12556FEE7001EF70C37A187BFE
:1040A30000121C9B8A0C8B0DAE0CAF0DEE7001EF52
:1040B300700302401C9004CDE07002A3E0700590F1
:1040C30004CD800AE50A126753E50B12530D126BF8
:1040D300608E828F83125FD9EE240C12530A74FF11
:1040E300F0E48E828F83A3A3A3A3A3124DE2A3A321
:1040F300A312428BE4F0A3F0E508240B126CF71231
:104103004237124BBAC4124237A3F074011212EFB2
:1041130012425DA3F074021212EF12425DF0E50841
:10412300240DF582E50912530D123D12A3125EE32D
:10413300A3A3A3124263125EDD74021212EFE064C2
:1041430001601174071212EFAC82AD83EE240D12DD
:10415300424A80117C087D0079FFEE240DFAEF348A
:1041630000FB121C1774121212EFE0C0E0EE2415CC
:1041730012530AD0E0F0901ADCE0C0E01242411280
:104183003189FAD0E0C39A400302401C1267F9E573
:104193000912530DA3E05480F9E47001E97009900A
:1041A300124AE0700302401C74041212EF12473CDF
:1041B300A3A3700EE0704E74061212EFE0700602B5
:1041C300401CE0601574051212EFE0C0E0EE240C11
:1041D300123186FAD0E0C39A502B85088285098371
:1041E300126D0A125EDB124241123189C0E0125392
:1041F30007D0E0F074051212EFE0C0E0EE240C12D9
:10420300530AD0E0F074061212EFE0600D74018ED1
:10421300828F83A3A3A3A3A3A3F074041212EFE0DA
:10422300700302401C74018E828F83A3A3A3A3A3F4
:10423300F002401C540F8E828F83A3A3A322E508B0
:104243002410F582E50922FAEF3400FB12240F2231
:10425300A3A3E0F508A3E0F50922124740024D2C81
:1042630012426722E0F8A3E0F902658A9004411242
:1042730048DB640122E0F9850882850983A3A3A3AF
:10428300A3A3A3A3A3A3E022A3F0EE2416124BA59A
:104293002274F4120A8B74C91210B2900481E06480
:1042A30008606D900492E0F824D0F582E4341AF5A6
:1042B30083E0F508900463F0E824D6F582E4341A29
:1042C300F583E0F509900461F0750AFF750BFFE5CE
:1042D30008780A1211B8E50AF4F8E50BF4F93395F6
:1042E300E0FA90048AE8FCE9FDEAFE124444750A08
:1042F300FF750BFFE509C39508780A1211B8E50AA3
:10430300F4FCE50BF4FD3395E0FE90048E12444477
:10431300E4125D457904122463900492E0700974F9
:104323001E1212EF74018006741E1212EFE4F07471
:104333000F851082851183F0901A4D1265687946B6
:1043430012246374011212EFE4F0901ABEE0C0E08D
:1043530074021212EFD0E0F090046FE0C0E0740337
:104363001212EFD0E0F074041212EFE4F0740512AD
:1043730012EFE4F074071212EFE4F0900492E0C33A
:10438300940F500CE0C0E074061212EFD0E08007E7
:1043930074061212EF740FF07C937D0474081212EA
:1043A300EFAA82AB8312240F7C037D0079FF741084
:1043B3001212EFAA82AB83121C179004CBE0C0E069
:1043C30074131212EFD0E0125E0F1212EF125DFEA1
:1043D3001216A1900486E0C0E0741C1212EFD0E024
:1043E300F0900487E0C0E0741D1212EFD0E0F0906B
:1043F3000474E0C0E0741A1212EFD0E0F090047F6E
:104403001268C674181212EF125EDD74201212EFD6
:10441300E4F0900489E0C0E0741F1212EFD0E0F0E2
:1044230074341212EFE4F074291212EFE412444FC1
:1044330074141212EFAA82AB8312247B74370258CE
:1044430087ECF0A3EDF0A3EEF0A3F022F07A727BF9
:1044530004795312445A221224637A757B04794BEC
:1044630012246322C082C0838A828B83A3E0600705
:10447300E4900481F0804A7408900481F0900492DF
:10448300E0701F90044BE07002A3E0600B79009092
:10449300044B125D3312268A90047F1253207A054F
:1044A300801A790012140D9004721253207A067B3D
:1044B300001223F79004751253207A047B00122311
:1044C300F702596A74F4120A8B74EA1210B28A085A
:1044D3008B09124577EE7001EF70030245728E82ED
:1044E3008F83A3A3A3A3E0640160278E828F83A39A
:1044F300A3A3A3E06402601A8E828F83A3A3A3A362
:10450300E06403600D8E828F83A3A3A3A3E06404FE
:10451300705DE5082402FCE50912458C126CDB1280
:1045230012EF12459D1212EF7401F074131212EF81
:1045330012656712246F8908AC087D007A077B0037
:104543001223F78E828F83A3A3A3A3A3E0C2E0F079
:1045530074018E828F83A3A3A3A3A3A3A3A3A3F016
:1045630074028E828F83A3A3A3A3A3A3A3A3F07434
:1045730016025887EA24020A0AEB3400FB121305D9
:104583008A0A8B0BAE0AAF0B223400FD851082859D
:104593001183AA82AB8312240F22E8F0A3E9F074FB
:1045A3000A2274F7120A8B9004CDE0FAA3E0800C80
:1045B300EA241612556C121CA1EEFAEFFBEA700105
:1045C300EB70ED9004CDE4F0A3F002509974F41273
:1045D3000A8B8A088B09EA2413F582EB123189646A
:1045E30003700DEA240BFAEB3400FB121305800D64
:1045F300E064027075EA1267FBEB126D038A0A8BA3
:104603000BAE0AAF0BEE7001EF605F850882850980
:1046130083A3E0700DE48E828F83A3A3A3A3A3A33C
:10462300804764F1600C850882850983A3E064E117
:10463300701F8E828F83A3A3A3A3A3A3E06401703F
:104643001012651612268AE508240BFAE509123BB7
:104653005F8E828F83A3A3A3A3A3A3E0600C8E82A8
:104663008F83A3A3A3A3A3A314F002588A74F21203
:104673000A8B8A0C8B0DECFEEDFF890B8A828B83F0
:104683001267588A828B83124744EEF8EFF9A30E20
:10469300AF838A828B83A3A3E0C454F0FA88828910
:1046A30083E04A12475312474A12474EE0333354CA
:1046B300FCFA8E828F83E04A12474EA3E0333333F2
:1046C30054F8FA8E828F83E04AF008EFF9A30EAF15
:1046D30083850C828B83A3A3A3A3A3A3E0A2E0E41B
:1046E30092E013135480FA88828983E04AF0E50C40
:1046F3002407F508EB3400F509750A007808121051
:10470300067C081256BF1210381268DCE50C240F21
:10471300F508E50D3400F50978081210067C03123C
:1047230056BF121038E50BC3940F400A12481512F6
:10473300530D12473CF0022EDC12474022E00242A6
:1047430039A312474AF022E002658A124753A32293
:10475300F0850C828B83A3A3A32274F2120A8BEA43
:10476300FEEBFF890B8C0C8D0D8E828F83E08C8288
:104773008D83124DE7AE82AF83E012591A12483788
:10478300C412591A12482AE054038C828D831248AA
:1047930035A2E2E492E08C828D8312483413131322
:1047A300541F12591A124833A2E7E492E08C828D07
:1047B30083A3A3A3A312482A8E088F09750A00783E
:1047C300081210067C087D00E50C240712481E120F
:1047D30010381268DC8E088F0978081210067C03E3
:1047E3007D00E50C240F12481E121038E50BC3940C
:1047F3000F40148E828F83A3A3A3E0C0E012481559
:1048030012530DD0E0800712481512530DE4F00245
:104813002EDCE50C2412F582E50D22FAE50D3400B9
:10482300FB121C0B740322A3A3124DE70EAF8322CA
:10483300A3A3A3A3A3F08E828F83E02274F4120AAE
:104843008B74F91210B2EAFEEBFF900441E07002A0
:10485300A3E060101248D464027009EEFAEFFB1271
:10486300173D806890047FE06E7003A3E06F705C77
:1048730074016960097A937B04126562704E7A0051
:104883007B029004CCE0F9121D4FEA7001EB703CFF
:1048930090048278081212A5851082851183780806
:1048A300121296900488E0C0E074041212EFD0E074
:1048B300F074051212EF7401F074061212EF740211
:1048C3001265681213BFE960921213C57407025888
:1048D300879004411248DB2212555EA3A3E022E530
:1048E30008240CF582E5091251388A828B83A3A32D
:1048F300A3A3A3A3A3A3A31238458A828B83125A2B
:10490300CB12169B740222E0F902596A74F6120A5A
:104913008B9004DEE0701F7C0079017A007B00122B
:104923001611EA7001EB600E8A828B83E07002A39A
:10493300E06003121569025D2AC082C083124DC96B
:10494300401079FF12160BE9FA902AC7E493C39A31
:10495300500479018002790002596A74F1120A8BBA
:104963008A0A8B0B890E7509008A828B83A3A3A302
:10497300A3A3A3A3A3E0F91216178A0C8B0DAE0C05
:10498300AF0D750801EE7001EF6003024A34850A2A
:1049930082850B83A3A3A3A3A3A3125320850A8217
:1049A300850B83A3A3A3A3A3A3A3A3E0F9850A82EF
:1049B300850B831263EA1215FF8A0C8B0DAE0CAFC5
:1049C3000DEE7001EF7003024B718E828F83A3A3F0
:1049D300A3A3E4F0A3F0E50A240BFAE50B125FBEF0
:1049E300E0C0E0125307D0E0F0121701EE240C12DE
:1049F3006557750901EE2406F8EF126CFA547FF03F
:104A0300A3E054FC124BBA54046003024AB8901A50
:104A1300B7E0F50A750B007407780A1211B88E8295
:104A23008F83A3A3A3A3A3A3E0450AF0A3E0450BAD
:104A3300F08E828F83A3A3A3A3A3A3E05480F50ADC
:104A4300A3E05403F50B7407780A121278E50E609D
:104A53007774028E828F83A3A3A3A3124833240DFA
:104A6300124B94A2E2500990046D124B88125EDB44
:104A7300E50A7003024B3FEE2406F8EF3400F9E831
:104A8300FAE9FB8A828B83E0547FFCA3E054FCFDAC
:104A930074FF250AF50A74FF3400F50B7407780ACE
:104AA3001211B8E50A4CF8E50B4DF98A828B831293
:104AB3005EDD024B3F8E828F83A3A3A3A3A3A3E058
:104AC3004480F0A3E0024A33E50A700575080080CC
:104AD3006B8E828F83A3A3A3A3A3A3E054206017A9
:104AE300121C238A0A747F550AF8745F288E828FFA
:104AF30083A3A3A3A380278E828F83A3A3A3A3A3AC
:104B0300A3E05410600E121C238A0A740F550AF88E
:104B1300740180D88E828F83A3A3A3A37401F0A30F
:104B2300E4F074048E828F83A3A3A3A3A3A3A3A3FC
:104B3300A3124DEE7001EB7003124B7B74016509F8
:104B4300702F8E828F83A3A3A3A312657FF9EEFA3E
:104B5300EFFB121605E96019EE240C123186700280
:104B6300A3E06003124B98EEFAEFFB121CA1750849
:104B730000A9087F07020DA67A207B009004CCE0F1
:104B8300F912260122E0F8A3E0F98E828F83A3A312
:104B9300221269C222EE240C124BA5124BB122EE53
:104BA300240FF582EF124BAC223400F58322E0FA96
:104BB300A3E0FB121CA12212608CE02274F4120AFF
:104BC3008B750800124C607001EF7003024C5B8E12
:104BD300828F83A3A3A3A3A3A3A3A3A3E0640670C9
:104BE300771216358E828F83A3A3A3A3A3A3A3E077
:104BF3005408F9E47001E9605C8E828F831250A43B
:104C03007A007B001215F9EA7001EB7048124C66CA
:104C13001224937C007D007A007B0080228E828F99
:104C23008312509E7004A3E064FF6029124C661245
:104C3300217BE9641A601E7C007D00EEFAEFFB1213
:104C430015F98A088B09AE08AF09EE7001EF70CD34
:104C53007900122499750801A90802588A121617B7
:104C6300023D0790047F126585125ACB2274F71216
:104C73000A8B8A828B83E5827002E5837009900434
:104C8300DF80068A828B83A3A3124E817001EB60BF
:104C93002C8A828B83A3A3A3A3A3A3A3E05408F921
:104CA300E47001E960DDEC7001ED60158A828B83AD
:104CB300122EE46C7003A3E06D70C880047A007B4D
:104CC3000002509974F2120A8B8A088B09890AEC44
:104CD300FEEDFF7A0E7B00121C9BEA7001EB603E37
:104CE300E48A828B83A3A3A3A3A3A3A3A3124D2428
:104CF300E50A1265E4A3A3126B5C8A828B83A3A3E8
:104D0300A3A3E4F0124D241265E2126F54EA240CBB
:104D1300F582EB1253171265E3A3A3F0A3F0022E5F
:104D2300DC126CD48002A3A3A3A3A3A3A32274F5D0
:104D3300120A8BEAFEEBFF890A8C088D09EE7001DB
:104D4300EF60597401650A7014790112160BE9FAC0
:104D5300902ACDE493C39A500F791180647404654B
:104D63000A7033124DC940F18E828F83A3A3A3A38C
:104D7300A3A3A3A3A3E50A124DE2126F528E828F5F
:104D830083A3A3E4F0A3F09004DFE07002A3E09018
:104D930004DF601C800A7402650A60CC79C180213B
:104DA300124DD8E07002A3E088828983A3A370F038
:104DB300EEF0A3EF124DEE7001EB7003124B7B7913
:104DC300007F03020DA6790412160BE9FA902AC993
:104DD300E493C39A221253EF88828983A3A32212F6
:104DE3004DE7A322F08E828F83A322F07A207B00EB
:104DF3009004CCE0F9121D4FEA22C082C083E9FC83
:104E030079009004DF801D8A828B83A3A3A3A3A3CD
:104E1300A3A3A3A3E06C600574FF6C7001098A82ED
:104E23008B83A3A3124E817001EB70DB02596A746A
:104E3300F7120A8B8A828B83E5827002E5837009FD
:104E43009004DF80068A828B83A3A3124E817001B4
:104E5300EB60248A828B83A3A3A3A3A3A3A3A3A30B
:104E6300E06970E1EC60148A828B83E0240D1268A0
:104E73000BA2E240D080047A007B00025099125AC0
:104E8300CBEA22C082C0839004DF80068A828B83B0
:104E9300A3A3124E817001EB60128A828B83A3A3BA
:104EA300A3A3A3A3A3A3E06970E280047A007B0019
:104EB30002596AC082C0839004DF80068882898396
:104EC300A3A3124EEF7001E9601B88828983E0FC83
:104ED300A3E0F5838C82E06A7003A3E06B70DDE8E6
:104EE300FAE9FB80047A007B0002596A1253EFE867
:104EF3002274F1120A8B8A0A8B0B8C0C8D0D7508A8
:104F030000750900EA7001EB602E9004DF80068EC5
:104F1300828F83A3A3125572EE7001EF601AAC0C5B
:104F2300AD0DEEFAEFFB850A82850B8312268AE923
:104F3300640170DB8E088F09AA08AB09024B7679EE
:104F430000020D3774F7120A8B9004DF1268C67CD7
:104F5300007D00800DE8FCE9FD88828983A3A3120C
:104F630068C6E87001E96030EA687002EB6970E5D1
:104F73009004DF1263EAE86A7002E96B888289832E
:104F8300A3A370081268C69004DF80091268C68C58
:104F9300828D83A3A3125EDD02509974F7120A8BEC
:104FA300EAFEEBFFEE7001EF601612162F1250AA05
:104FB3007002A3E06003124B98EEFAEFFB121CA100
:104FC30002509974F7120A8B8A828B831250A49031
:104FD30004DF1268C67508007E00803388828983E7
:104FE300A3A3A3A3A3A3A3A3A3E0640570180E889C
:104FF300828983E0FFA3E0F5838F82E06C7003A3D3
:10500300E06D7002050888828983A3A31268C6E84D
:105013007001E970C7902AC0E493FCE508C39C5073
:105023000B902AC1E493FCEEC39C400F8A828B83CE
:10503300A3A3A3A37401F0A3E4801290046D1268E8
:10504300C68A828B83A3A3A3A3E8F0A3E9F0740524
:105053008A828B83A3A3A3A3A3A3A3126CCFA3A32B
:10506300A3E0F0A3E044081265E412509E7004A389
:10507300E064FF601590047F1253208A828B8312B1
:1050830063EA12248DE9641A700579011224998068
:1050930005741F1210387F01020DA6122EE864FF5B
:1050A30022122EE80238461269BB124BB28E828F4F
:1050B30083124BB1EE240CF582EF1250C122124B36
:1050C300ACE02274F7120A8B74E11210B2EA2413D3
:1050D300F582EB123189C0E074111212EFD0E012A5
:1050E30053E474091212EF1253DD12513EFCE9FD31
:1050F3008C828D831268C6740B1212EF1253DD2457
:1051030014F582EB123189C0E074121212EFD0E071
:10511300F0EA240E1251318C828D831253208510B4
:1051230082851183AA82AB83121503025094F58200
:10513300EB12513822124BACE0F9222404F8EB3481
:1051430000F9E82274F4120A8B74FC1210B2EAFE1E
:10515300EBFF1215E7E9600579110253028E828F86
:10516300831262AF6003125311EE2413123186705F
:1051730003741EF012318364017019901318E060F8
:105183000D900469E0700D8E828F83E07006EE242B
:1051930011125314EE2414123186701590045EE03C
:1051A300C0E0EE241412530AD0E0F090045EE00451
:1051B300F090046CE0A2E150468E828F831262AFBE
:1051C300603D8E828F83E06008EE240B12532C60C7
:1051D3002EEE240F12318654406017EE2413123141
:1051E300866401700DEE240F12318654FB12618C1C
:1051F300800DEEFAEFFB121641E9700302515B8E4C
:10520300828F83E064017015EE240B122EE1640299
:10521300700BEE240F123186444012618CEE240F82
:105223001231865440705490046CE0A2E1504C75E6
:105233000800780812100EEE2406FCEF3400FD8EF1
:10524300828F831263E8EE2412F582EF1251341237
:10525300153F7401121038E960061253111261866A
:1052630079008E828F83A3A3A3A31253208E828FF0
:1052730083A3A312532460031261868510828511D0
:1052830083AC82AD83EEFAEFFB1216598A088B09C1
:105293008E828F83A3A3125320EA7001EB605C8E8E
:1052A300828F83E0C0E074011212EFD0E0F0740249
:1052B3001212EF126B6074011212EF85820A85835A
:1052C3000B780A12100AEE240F12530A120E4FEE35
:1052D300240E123186F50A780A12100E7405121282
:1052E300EFE0F91216537405121038E9FE74106ECC
:1052F300700BAA08AB09121CA180027E10EEF97490
:1053030004025887EE240BF582EF124BA822EE24F9
:1053130012F582EF124BA8E4F022124BA512384586
:1053230022125ACB121485E922124BA5122EE8F948
:105333001216D7E922C082C08374DE1210B28A82A9
:105343008B83A3A3A3A31268C6740E1212EFE8F013
:10535300A3E91253E4740C1212EF1253DD240DF57A
:1053630082EB123189C0E0741A1212EFD0E0F0120E
:1053730068BD74201212EF1253DD2415F582EB126F
:105383003189C0E074081212EFD0E0F0EA241C1255
:1053930068C074121212EF125EDD74FF85108285ED
:1053A3001183F074011212EF74FFF074021212EF02
:1053B30074FFF09081B4120E4B74041212EFAC829E
:1053C300AD8374071212EFAA82AB831213FB74042A
:1053D30012103879007422025967E8F0A3E9F0EA61
:1053E30022F08A828B831253ED22A3A3E0F8A3E079
:1053F300F92274F0120A8B74EE1210B274101212A6
:10540300EF12655E8C0E8D0F890D74221212EFE080
:10541300F50C74231212EF1255727508107A1E7B65
:1054230000121C9B74021212EF12655E74021212B8
:10543300EFE07002A3E07003025544750900AA0E61
:10544300AB0F125D107001E9602388828983A3A3E7
:10545300A3A3E06401600D88828983A3A3A3A3E0CF
:1054630064037009EE5440700474044FFF74045FC6
:10547300F9E47001E96003750901851082851183E0
:10548300AA82AB837950125B171212EF125554A301
:1054930012655E74021212EFE0240B122D95740252
:1054A300F01212EF1255547402F01212EF125D3320
:1054B300E50EF0A3E50FF074021212EFE0241B12C5
:1054C3002D95E50DF074021212EFE0240C122D95C8
:1054D300E50CF074101212EF125B201212EFE024AD
:1054E3001C122D9512655E74081212EF126B607414
:1054F3000A1212EFE50CF074251212EF125D33C09D
:1055030082C083740D1212EFAC82AD83D083D0823C
:105513007403120FA3A90974021212EFAA82AB83B8
:105523001215EDE964017011E5096008A90C121662
:105533001712163B750800800874021212EF124B03
:105543009EA9087412800274021210387F08020D9B
:10555300A612555A024D2C12555E22E0F8A3E0F52F
:10556300838882024D2CEA240BF582EB124BA8E0D0
:10557300FEA3E0FF2274F0120A8BEAFEEBFF8C0815
:105583008D0974088E828F8312428BE06008741039
:105593008E828F83A3F0EE241712318660098E82E8
:1055A3008F83A3E02408F01231836005750E0E800B
:1055B30003750E008E828F83A3E0C0E0EE240D12EC
:1055C300530AD0E0FAE02A250E8C828D83F0123143
:1055D30083600512588F2AF0850882850983E0C30A
:1055E300947540030256B2E01256C87001EB700383
:1055F3000256B8EEFAEFFB12165FEA850C82850DB0
:10560300831261C1EE2402F81256D4125703F0EE4E
:10561300240408081256D4A3A3125703A3A3F0EE3D
:1056230024131256ECF0EE24141256ECA3F0750872
:1056330008EE24161231866013EE241812531DE56A
:105643000C2408FAE50D12424C750810EE241712CB
:1056530031866010EE241A12531DE50C2508FAE575
:105663000D12424C1253071256F6121006EE240D79
:10567300123186FC7D008E828F83A3E0F8E50C282F
:10568300F8E50D3400F9E50E28FAE4391256C41290
:105693001038123183601EEE240D123186FD8E8286
:1056A3008F83A31256DF600DAA0CAB0D121CA175DC
:1056B3000C00750D00AA0CAB0D02554F7D00EEFAE0
:1056C300EFFB024824FA7B00121C9B8A0C8B0DEA29
:1056D30022EF126CFE850C82850D8322E0FCAA0C5E
:1056E300AB0D790012253BE922124BA512570AA3F1
:1056F300A3A322E0F508A3E0F509750A00780822C0
:1057030012571512570A22E0850C82850D83A3A335
:10571300A322A3A312608CA32274F6120A8B8A829B
:105723008B83E0FC90046F1257A574027808121162
:10573300B8E5084CFCAD09EA241212579F740678A9
:10574300081211B8E5084CFCE5094DFDEA241112D5
:10575300579F740978081211B8E5094DFDEA24161C
:1057630012579F740B78081211B8E5094DFDEA240E
:105773001712579F740C78081211B8E5094DFD8A6A
:10578300828B83A3A3A3A3A3A31257A5740A7808A8
:105793001211B8ECFAE5094DFB025D2AF582EB1212
:1057A3004BA8E0F508750900221257B0221257B52D
:1057B300E022F08510828511832274F4120A8B8A09
:1057C300088B09ECFEEDFFE98E828F83F0125A8974
:1057D300C0E0EE241112530AD0E0125A83C0E0EE67
:1057E300241212530AD0E0125A756003125A5D8EC6
:1057F300828F83A3A3A3A3A3A3A3A3E060248E8286
:105803008F83A3A882A983E0FAE5082AFAE509347D
:1058130000FBEE241512530AEAF0A3EB124BBA2451
:1058230008F08E828F83A3E0FA8A0AE508250AF836
:10583300E5093400F9EE241D126177124838C39A42
:10584300C0E0EE241712530AD0E0126FE0E060309C
:10585300EE2417F508EF3400F509850882F583E097
:1058630024F2F0EE241DF8EF126CFA240EFAA3E0F2
:105873003400FB8882898312655E12588FC39AF0C5
:10588300800574151210387F04020DA690046AE097
:10589300F9122529E9FA850882850983E02274F43F
:1058A300120A8B8A088B09EA125921F0EA1313545E
:1058B3003F12591AA3A3A3F0EAC41313125921A345
:1058C300A3F0E48C828D83A3A3A3A3A3F08A0A8B02
:1058D3000B7409780A121278E50A125911F0EC24B4
:1058E30018F582ED1253178A0A8B0B740B780A1280
:1058F3001278E50A12590CF0740C7808121278E544
:105903000812590CA3F002588A125911A322540108
:105913008C828D83024D2A540F8C828D83225403F3
:105923008C828D83A3A322C082C08379008A828B59
:1059330083A3A3A3A3A3A3E0900469600FE0702251
:105943008A828B83A3A3E07019098016E060138A0F
:10595300828B831263E1900472E06A7003A3E06BAD
:1059630070E78003121038D083D082020D3774F3AE
:10597300120A8B8A088B09890CECFEEDFF125A89F7
:10598300C0E0EE241112530AD0E0125A83C0E0EEB5
:10599300241212530AD0E0125A756003125A5D8E14
:1059A300828F83A3A3A3A3A3A3A3A3E0601B8E82DD
:1059B3008F83A3125A4BEE241512530A125EDD8510
:1059C3000A82850B83E02408F0EEFAEFFB121671CE
:1059D300E970728E828F83A3A3A3A3A3123D1170D8
:1059E30025E0FC8C0AE508250AFAE5093400FBEEFC
:1059F300241D126557E50CC39CC0E0EE2417125317
:105A03000AD0E0F0803F125A4B740E28F8E439F9BB
:105A1300EE241D12530A125EDD90046AE0F912258A
:105A230029E9FA850A82850B83E0FCE50CC39C24F3
:105A3300F2C39AFDEE241712530AEDF0AA08AB093C
:105A4300790112253B02654B85820A85830BE0F8B9
:105A5300E50828F8E5093400F922E5082408F8E503
:105A6300093400F9EE241312617B124DE7E0240898
:105A7300F022F074088E828F83A3126FE4A3E022D6
:105A8300125EE7A3E0228A828B83125ACB12166B33
:105A9300850882850983A3A3125ACFE0F9EA8E828F
:105AA3008F83A3A3A3A3A3A3A3A3A3F0A3E9126137
:105AB30095125ACFA3A3E0F9EAF8EE240B12617B07
:105AC300125EE7E022124BACE00231A3E0FA850854
:105AD30082850983A3A3A322C082C0837AE47B04C3
:105AE30079E212245D7AE47B0402596AC082C0839E
:105AF3009004721263EA02596AC082C08374FE1270
:105B030010B2851082851183AA82AB83794B125B15
